:020000040000FA
:100000000C945D000C9485000C9485000C94850084
:100010000C9485000C9485000C9485000C9485004C
:100020000C9485000C9485000C9485000C9485003C
:100030000C9485000C9485000C9485000C9485002C
:100040000C9499020C9485000C9485000C94850006
:100050000C9485000C9485000C9485000C9485000C
:100060000C9485000C94850000000008000201003B
:100070000003040700000000000000000000000072
:10008000250028002B0000000000240027002A0083
:10009000040404040404040402020202020203032E
:1000A0000303030301020408102040800102040836
:1000B0001020010204081020A70311241FBECFEF57
:1000C000D8E0DEBFCDBF11E0A0E0B1E0EEEDF7E09B
:1000D00002C005900D92A232B107D9F721E0A2E249
:1000E000B1E001C01D92A334B207E1F710E0CDE505
:1000F000D0E004C02197FE010E94E703CC35D10770
:10010000C9F70E94E3020C94ED030C94000090E008
:10011000FC01EC55FF4F249180579F4FFC018491C7
:10012000882399F090E0880F991FFC01EA57FF4F50
:10013000A591B491FC01E458FF4F859194918FB73C
:10014000F894EC91E22BEC938FBF089590E0FC01C2
:10015000E859FF4F2491FC01EC55FF4F3491FC010D
:10016000E057FF4FE491EE23C9F0222339F023300A
:1001700001F1A8F4213019F1223029F1F0E0EE0F5D
:10018000FF1FE458FF4FA591B4918FB7F894EC91FD
:10019000611126C030953E233C938FBF08952730D0
:1001A000A9F02830C9F0243049F7809180008F7D74
:1001B00003C0809180008F7780938000DFCF84B56B
:1001C0008F7784BDDBCF84B58F7DFBCF8091B0006E
:1001D0008F778093B000D2CF8091B0008F7DF9CF20
:1001E0003E2BDACF3FB7F8948091270190912801F8
:1001F000A0912901B0912A0126B5A89B05C02F3FE7
:1002000019F00196A11DB11D3FBFBA2FA92F982F3C
:100210008827BC01CD01620F711D811D911D42E037
:10022000660F771F881F991F4A95D1F70895AF92DF
:10023000BF92CF92DF92EF92FF920F931F93CF93D3
:10024000DF936C017B018B01040F151FEB015E0135
:10025000AE18BF08C017D10759F06991D601ED91CA
:10026000FC910190F081E02DC6010995892B79F769
:10027000C501DF91CF911F910F91FF90EF90DF901B
:10028000CF90BF90AF900895089590E080E00895DA
:10029000FC0101900020E9F73197AF01481B590B91
:1002A000BC018BE291E00C941701CF93DF93EC013A
:1002B00060E08E810E94A60061E08E810E94A6000F
:1002C00060E08E810E94A6008BE891E00197F1F733
:1002D000DF91CF910895CF92DF92EF92FF920F932B
:1002E0001F93CF93DF936C017C0187E0E80EF11C34
:1002F000D0E0C0E0062F10E0B8010C2E02C07595CA
:1003000067950A94E2F76170F70181917F010E947D
:10031000A6002196C430D10579F7C601DF91CF91AF
:100320001F910F91FF90EF90DF90CF900C945501AB
:10033000CF92DF92EF92FF920F931F93CF93DF93B1
:10034000EC01F62E642F8C810E94A6008D818F3FD8
:1003500019F060E00E94A6000F2D10E08F8584FF49
:1003600025C06E0187E0C80ED11CF12CE12CB8012C
:100370000E2C02C0759567950A94E2F76170F6013C
:1003800081916F010E94A600FFEFEF1AFF0A88E03B
:10039000E816F10461F7CE01DF91CF911F910F9123
:1003A000FF90EF90DF90CF900C945501B80184E05E
:1003B000759567958A95E1F7CE010E946B016F2DC7
:1003C000CE01DF91CF911F910F91FF90EF90DF90C1
:1003D000CF900C946B0140E0682F8BE291E00C947D
:1003E0009801CF93DF93823029F490913A0198607D
:1003F00090933A0180933E0110923F0180E48093F4
:10040000400180E18093410180E580934201809129
:100410002F010E948700809130018F3F11F00E94D0
:100420008700809131010E948700CBE2D1E09E01DC
:100430002B52314080913A0184FD0AC084E090E063
:100440002196281739073CF48E810E948700EFCF50
:1004500088E090E0F5CF8BE39DE00197F1F760E055
:1004600080912F010E94A60060E0809131010E94DE
:10047000A600809130018F3F19F060E00E94A60035
:1004800080913A0184FD39C063E08BE291E00E94E3
:100490006B01CBE4D6E4CE010197F1F763E08BE288
:1004A00091E00E946B012197F1F763E08BE291E00C
:1004B0000E946B0183E592E00197F1F762E08BE225
:1004C00091E00E946B0180913A0180620E94EB01F1
:1004D00084E080933B018CE00E94EB0181E00E946C
:1004E000EB018BE39FE10197F1F782E080933C0100
:1004F00086E0DF91CF910C94EB0180620E94EB01CA
:100500008BE496E40197F1F780913A0180620E94B2
:10051000EB0183E592E00197F1F780913A01806267
:100520000E94EB01D0CF41E00E94980181E090E071
:1005300008951F920F920FB60F9211242F933F939D
:100540008F939F93AF93BF93809123019091240148
:10055000A0912501B09126013091220123E0230FC3
:100560002D3758F50196A11DB11D209322018093CE
:10057000230190932401A0932501B093260180913B
:10058000270190912801A0912901B0912A0101969B
:10059000A11DB11D8093270190932801A0932901EB
:1005A000B0932A01BF91AF919F918F913F912F916D
:1005B0000F900FBE0F901F90189526E8230F0296FC
:1005C000A11DB11DD2CFCF93DF93CDB7DEB7A197D9
:1005D0000FB6F894DEBF0FBECDBF789484B58260AD
:1005E00084BD84B5816084BD85B5826085BD85B5D7
:1005F000816085BD80916E00816080936E00109255
:1006000081008091810082608093810080918100CF
:100610008160809381008091800081608093800060
:100620008091B10084608093B1008091B0008160BE
:100630008093B00080917A00846080937A008091EA
:100640007A00826080937A0080917A008160809342
:100650007A0080917A00806880937A001092C100BD
:1006600082E00E94F1018CE091E00E9448019AE052
:10067000492E512C612C712C20E0222E20E0322EAC
:10068000E0913E01E23008F060C0E150F0E0E55D4D
:10069000FE4F848980680E94EB012FB7F894609127
:1006A00023017091240180912501909126012FBF93
:1006B00028EE33E040E050E00E94C50319A28E010D
:1006C0000F5D1F4FCA01B901A30192010E94C5032A
:1006D000605DF80162938F012115310541055105D7
:1006E00089F7309719F0CF010E94480187E191E026
:1006F0000E9448010E94F2004B015C0184E6C82E72
:10070000D12CE12CF12C0E94F200681979098A0998
:100710009B09683E734081059105A8F3F1E0CF1A6B
:10072000D108E108F10828EE820E23E0921EA11CF8
:10073000B11CC114D104E104F10429F721143104DE
:1007400009F49ECF0E9400009BCFE1E09FCFEBE237
:10075000F1E01382128284E091E09183808388E04B
:1007600084838FEF858389E0868384E0878385E0B7
:10077000808786E0818787E08287138614861586C6
:100780001686178681E00C94F101A1E21A2EAA1BAD
:10079000BB1BFD010DC0AA1FBB1FEE1FFF1FA21731
:1007A000B307E407F50720F0A21BB30BE40BF50B2E
:1007B000661F771F881F991F1A9469F760957095B7
:1007C000809590959B01AC01BD01CF010895EE0F7E
:1007D000FF1F0590F491E02D0994F894FFCF0000DD
:1007E00000009302170145014401486F6C61204DE0
:1007F000756E646F0020536567756E646F730000DB
:107800000C94343C0C94513C0C94513C0C94513CE1
:107810000C94513C0C94513C0C94513C0C94513CB4
:107820000C94513C0C94513C0C94513C0C94513CA4
:107830000C94513C0C94513C0C94513C0C94513C94
:107840000C94513C0C94513C0C94513C0C94513C84
:107850000C94513C0C94513C0C94513C0C94513C74
:107860000C94513C0C94513C11241FBECFEFD8E036
:10787000DEBFCDBF11E0A0E0B1E0ECE9FFE702C060
:1078800005900D92A230B107D9F712E0A2E0B1E065
:1078900001C01D92AD30B107E1F70E942D3D0C945F
:1078A000CC3F0C94003C982F959595959595959582
:1078B000905D8F708A307CF0282F295A8091C0000B
:1078C00085FFFCCF9093C6008091C00085FFFCCF60
:1078D0002093C6000895282F205DF0CF982F809127
:1078E000C00085FFFCCF9093C6000895EF92FF92F1
:1078F0000F931F93EE24FF2487018091C00087FD22
:1079000017C00894E11CF11C011D111D81E4E8164B
:1079100082E4F8068FE0080780E0180770F3E09132
:107920000401F091050109958091C00087FFE9CF1E
:107930008091C6001F910F91FF90EF9008950E94D3
:10794000763C982F8091C00085FFFCCF9093C600B5
:1079500091362CF490330CF09053892F089597555D
:10796000892F08951F930E949F3C182F0E949F3CCF
:107970001295107F810F1F9108951F93182F882350
:1079800021F00E94763C1150E1F71F9108951F935A
:10799000182F0E94763C803249F0809103018F5F5E
:1079A000809303018530C1F01F9108958091C0003C
:1079B00085FFFCCF84E18093C6008091C00085FFE5
:1079C000FCCF1093C6008091C00085FFFCCF80E102
:1079D0008093C6001F910895E0910401F091050184
:1079E00009951F9108950E94763C803241F0809164
:1079F00003018F5F80930301853081F008958091AA
:107A0000C00085FFFCCF84E18093C6008091C00058
:107A100085FFFCCF80E18093C6000895E0910401CA
:107A2000F09105010995089540E951E08823A1F0FE
:107A30002D9A28EE33E0FA013197F1F721503040CA
:107A4000D1F72D9828EE33E0FA013197F1F7215064
:107A50003040D1F7815061F708953F924F925F9285
:107A60006F927F928F929F92AF92BF92CF92DF924E
:107A7000EF92FF920F931F93CF93DF93000080E16B
:107A80008093C4001092C50088E18093C10086E015
:107A90008093C2005098589A259A81E00E94143D24
:107AA00024E1F22E9EE1E92E85E9D82E0FE0C02ECA
:107AB00010E1B12EAA24A394B1E49B2EA6E58A2E50
:107AC000F2E57F2EE0E26E2E79E4572E63E5462E36
:107AD00050E5352E0E94763C8033B1F18133B9F107
:107AE000803409F46FC0813409F476C0823409F41B
:107AF00085C0853409F488C0803531F1823521F1A3
:107B0000813511F1853509F485C0863509F48DC0BC
:107B1000843609F496C0843709F403C1853709F423
:107B200072C1863709F466C0809103018F5F80932C
:107B30000301853079F6E0910401F0910501099582
:107B40000E94763C803351F60E94F33CC3CF0E94E2
:107B5000763C803249F78091C00085FFFCCFF092DF
:107B6000C6008091C00085FFFCCF9092C600809136
:107B7000C00085FFFCCF8092C6008091C00085FFC9
:107B8000FCCF7092C6008091C00085FFFCCF609250
:107B9000C6008091C00085FFFCCF5092C600809146
:107BA000C00085FFFCCF4092C6008091C00085FFD9
:107BB000FCCF3092C6008091C00085FFFCCFB09210
:107BC000C60088CF0E94763C863808F4BDCF0E945C
:107BD000763C0E94F33C7ECF0E94763C803809F4CC
:107BE0009CC0813809F40BC1823809F43CC1883942
:107BF00009F48FC080E00E94C73C6CCF84E10E94F2
:107C0000BD3C0E94F33C66CF85E00E94BD3C0E94D3
:107C1000F33C60CF0E94763C809306010E94763C44
:107C2000809307010E94F33C55CF0E94763C80333D
:107C300009F41DC183E00E94BD3C80E00E94C73C66
:107C400049CF0E94763C809309020E94763C809343
:107C5000080280910C028E7F80930C020E94763C79
:107C6000853409F415C18091080290910902892B8D
:107C700089F000E010E00E94763CF801E85FFE4FDA
:107C800080830F5F1F4F80910802909109020817AF
:107C9000190788F30E94763C803209F045CF809125
:107CA0000C0280FF01C16091060170910701660F0F
:107CB000771F7093070160930601A0910802B091AD
:107CC00009021097C9F0E8E0F1E09B01AD014E0F09
:107CD0005F1FF999FECF32BD21BD819180BDFA9A17
:107CE000F99A2F5F3F4FE417F50799F76A0F7B1F4B
:107CF00070930701609306018091C00085FFFCCF5F
:107D0000F092C6008091C00085FFFCCFB092C60003
:107D1000E1CE83E00E94C73CDDCE82E00E94C73CFA
:107D2000D9CE0E94763C809309020E94763C8093D3
:107D300008028091060190910701880F991F909386
:107D40000701809306010E94763C853409F4A6C0A1
:107D500080910C028E7F80930C020E94763C8032D0
:107D600009F0B8CE8091C00085FFFCCFF092C6002C
:107D7000609108027091090261157105B9F140E046
:107D800050E080910C02A82FA170B82FB27011C0E2
:107D9000BB2309F45CC0E0910601F0910701319624
:107DA000F0930701E09306014F5F5F4F46175707B7
:107DB000E8F4AA2369F3F999FECF209106013091E6
:107DC000070132BD21BDF89A90B58091C00085FFB2
:107DD000FCCF9093C6002F5F3F4F30930701209355
:107DE00006014F5F5F4F4617570718F38091C00099
:107DF00085FDE5CE8091C00085FFF8CFE0CE81E023
:107E00000E94C73C67CE0E94763C803209F08CCE3F
:107E10008091C00085FFFCCFF092C6008091C00029
:107E200085FFFCCFE092C6008091C00085FFFCCFAB
:107E3000D092C6008091C00085FFFCCFC092C600E2
:107E40008091C00085FFFCCFB092C60043CEE09188
:107E50000601F091070194918091C00085FFFCCF4D
:107E60009093C6009CCF80E10E94C73C33CE0E9415
:107E7000763C0E94763C182F0E94763C112309F430
:107E800083C0113009F484C08FE00E94C73C22CE29
:107E900080910C02816080930C02E5CE80910C02EF
:107EA000816080930C0259CF809107018823880F4D
:107EB000880B8A2180930B02809106019091070123
:107EC000880F991F90930701809306018091080203
:107ED00080FF09C080910802909109020196909359
:107EE000090280930802F894F999FECF1127E091D6
:107EF0000601F0910701C8E0D1E08091080290915D
:107F00000902103091F40091570001700130D9F34B
:107F100003E000935700E89500915700017001308D
:107F2000D9F301E100935700E89509901990009169
:107F3000570001700130D9F301E000935700E89534
:107F40001395103498F011270091570001700130FB
:107F5000D9F305E000935700E895009157000170B0
:107F60000130D9F301E100935700E895329602976A
:107F700009F0C7CF103011F00296E5CF112480919F
:107F8000C00085FFB9CEBCCE8EE10E94C73CA2CD19
:0E7F900085E90E94C73C9ECDF894FFCF80008B
:00000001FF
