:100000000C94F3020C941B030C941B030C941B0321
:100010000C941B030C941B030C941B030C941B03E8
:100020000C941B030C941B030C941B030C941B03D8
:100030000C941B030C941B030C941B030C941B03C8
:100040000C94FA070C941B030C941B030C941B03D5
:100050000C941B030C941B030C941B030C941B03A8
:100060000C941B030C941B034602000000FF0800C5
:10007000053E5B4F5B3E053E6B4F6B3E051C3E7C79
:100080003E1C05183C7E3C18051C577D571C051C62
:100090005E7F5E1C0400183C1805FFE7C3E7FF0401
:1000A0000018241805FFE7DBE7FF0530483A060E85
:1000B00005262979292605407F05050705407F0586
:1000C000253F055A3CE73C5A057F3E1C1C080508A5
:1000D0001C1C3E7F0514227F221405FFFFFFFFFF3B
:1000E00005F0F0F0F0F003FFFFFF05000000FFFF58
:1000F000050F0F0F0F0F0508047E04080510207E62
:1001000020100508082A1C0805081C2A080805AA4A
:10011000005500AA05AA55AA55AA0530383E383020
:1001200005060E3E0E06020000015F0307000705EC
:10013000147F147F1405444AFF4A32056313086490
:10014000630536494936480107033E4141034141B1
:100150003E05082A1C2A080508083E08080260E037
:100160000408080808026060056010080403053EE2
:100170005149453E0304027F0571494949460541FD
:1001800049494936050F0808087F054F4949493153
:10019000053E4949493005030101017F05364949BA
:1001A000493605064949493E026C6C026CEC03086D
:1001B0001422041414141403221408050159090903
:1001C00006053E415D594E057E0909097E057F49B8
:1001D000494936053E41414141057F4141413E0586
:1001E0007F49494941057F09090901053E414149C6
:1001F00079057F0808087F03417F4105304141416F
:100200003F057F08142241057F40404040057F02A2
:100210000C027F057F0408107F053E4141413E05E9
:100220007F09090906053E4141617E057F091929BB
:10023000460546494949310501017F0101053F4015
:1002400040403F051F2040201F053F4038403F05EC
:1002500063140814630503047804030561514945D8
:1002600043037F41410503040810600341417F05BA
:100270000402010204048080808003010204043827
:1002800044447C047F44443804384444440438449F
:10029000447F043854545804047E05010418A4A46F
:1002A0007C047F040478017D0384857C047F10280E
:1002B00044017F057C04780478047C0404780438C5
:1002C00044443804FC24241804182424FC047C042A
:1002D0000408045854543403047F04043C40407C14
:1002E000041C20407C053C4030403C046C10106CE9
:1002F000041CA0A07C046454544C04083641410101
:100300007F04414136080402010201057F41414159
:100310007F053E55555541053844443844057C2AEF
:100320002A3E14057E0202060605027E027E0205B2
:100330006355494163053844443C0405407E201E12
:10034000200506027E0202086313086463006060F1
:10035000052A2A2A2A2A03514A4403444A510500FD
:1003600000FF010303E080FF053612362436030246
:100370000502021818021010053040FF0101041F89
:1003800001011E000000000901017F017F020C0233
:100390007F0000000000000100017D0418247E247D
:1003A00004447E454105221C141C2205012A7C2A96
:1003B000010177044E55553903020002077E81BDC5
:1003C000A5A5817E0326292F0508142A14220408D6
:1003D00008081803080808077E81BD95A9817E05D5
:1003E00001010101010302050203242E2403191552
:1003F000120315150A02020104F8204078050609C7
:100400007F017F021818040080A0C003121F100390
:100410002629260522142A140808402F1008041E35
:10042000117C08402F10080462554C0915553F10E7
:1004300008041E117C053048484D400578151614F7
:1004400078057814161578057A1514157A05781636
:10045000151679057815141578057814151478078C
:100460007E09097F494941059EA1612121057C54EE
:10047000554644057C54564544057E55544546052D
:100480007C5554454403457E4403447E4503467DE4
:100490004603457C4505087F49413E057C0A1122FB
:1004A0007D053844454638053844464538053A45C3
:1004B00044453A05384645463905384544453805EA
:1004C0002214081422057C625A463E053C404142F3
:1004D0003C053C4042413C053C4241423C053C41DC
:1004E00040413C0502047A0502043F12120C057ECD
:1004F00049494E30043845467C043844467D04382A
:1005000046457E043A45467D043845447D04304ADC
:100510004D7A0720545438545458049CA262220443
:10052000385556580438545659043856555A0438D4
:1005300055545902017A027A0103027902030278C2
:100540000204304B4B3C047A090A710430494A30AA
:100550000430484A3104304A49320432494A3104AD
:10056000394444390508082A08080438544C38042A
:10057000384142780438404279043842417A043A9A
:1005800040407A0418A0A27904FC282810041AA07C
:10059000A07A000000080002010000030407000028
:1005A00000000000000000000000250028002B00D3
:1005B00000000000240027002A00040404040404AE
:1005C0000404020202020202030303030303010202
:1005D00004081020408001020408102001020408D1
:1005E0001020E40BFC0B11241FBECFEFD8E0DEBFC0
:1005F000CDBF11E0A0E0B1E0ECEBFAE102C0059064
:100600000D92A833B107D9F721E0A8E3B1E001C00A
:100610001D92AA36B207E1F712E0C2EFD2E004C0A1
:100620002197FE010E941F0CC13FD107C9F70E940C
:1006300044080C94510D0C940000829590E09C01AC
:1006400035952795359527952373880F991F880F22
:10065000991F8C7C282B30E0C9019595879585756D
:10066000220F331F2A7A822B089590E0FC01E25377
:10067000FA4F249186549A4FFC018491882399F073
:1006800090E0880F991FFC01E055FA4FA591B491B5
:10069000FC01EA55FA4F859194918FB7F894EC914B
:1006A000E22BEC938FBF089590E0FC01EE56FA4FD9
:1006B0002491FC01E253FA4F3491FC01E654FA4FC5
:1006C000E491EE23C9F0222339F0233001F1A8F49C
:1006D000213019F1223029F1F0E0EE0FFF1FEA5529
:1006E000FA4FA591B4918FB7F894EC91611126C09F
:1006F00030953E233C938FBF08952730A9F02830D2
:10070000C9F0243049F7809180008F7D03C080912B
:1007100080008F7780938000DFCF84B58F7784BD92
:10072000DBCF84B58F7DFBCF8091B0008F77809336
:10073000B000D2CF8091B0008F7DF9CF3E2BDACFC1
:100740003FB7F89480913F0190914001A091410101
:10075000B091420126B5A89B05C02F3F19F0019624
:10076000A11DB11D3FBFBA2FA92F982F8827BC010B
:10077000CD01620F711D811D911D42E0660F771F33
:10078000881F991F4A95D1F708958F929F92AF9233
:10079000BF92CF92DF92EF92FF924B015C010E94D9
:1007A000A0036B017C010E94A0036C197D098E09D6
:1007B0009F09683E734081059105A8F321E0821AE4
:1007C0009108A108B10888EEC80E83E0D81EE11C8C
:1007D000F11C81149104A104B10429F7FF90EF905A
:1007E000DF90CF90BF90AF909F908F900895EF9241
:1007F000FF920F931F93CF93DF9380914D01882336
:10080000A1F080914401882361F08FB7F894909112
:100810004401913071F59DB3909343019DB39DBB0D
:100820008FBF80E58CBD81E08DBD60E080914C0183
:100830000E94540380914D018823F1F030E020E0C4
:100840008091500190E0880F991F2817390708F010
:100850003DC0E0915301F0915401E20FF31F8081FC
:100860008EBD00000DB407FEFDCF8EB52F5F3F4F4C
:10087000E7CF80934301D5CFD0E0C0E08091500115
:1008800090E0880F991FC817D90700F5E091530130
:10089000F0915401EC0FFD1F0081F0904B01E090AE
:1008A0004A0118E0602F661F6627661F8E2D0E9482
:1008B0005403000F61E08F2D0E94540360E08F2DE0
:1008C0000E945403115071F72196D8CF61E08091B6
:1008D0004C010E94540380914D01882371F0809156
:1008E0004401882351F09FB7F894209144018091EE
:1008F0004301213049F48DBB9FBFDF91CF911F9100
:100900000F91FF90EF9008958FBFF7CFE5E4F1E0EE
:10091000438550E0440F551F70E060E08685978561
:100920000C944A0DEF92FF920F931F93CF93DF9396
:10093000FF24F394D0E0C0E001E010E0B9E0EB2E3A
:100940000E94860498010C2E02C0220F331F0A94C5
:10095000E2F7E0E090E080915001E817E0F5EE9DCD
:10096000B0011124A0915101B0915201A60FB71FFF
:1009700018964C9150E042235323452B51F14E2FB2
:1009800050E08150990B841B950B880F991FA09103
:100990005301B0915401A80FB91FFC92A0915101CD
:1009A000B0915201A60FB71FAC0FBD1F6C91809183
:1009B00050018150990B841B950B880F991F409112
:1009C000530150915401840F951FDC0111966C93D3
:1009D00091E0EF5FC0CF91110E94F7032196F3944D
:1009E000C830D10509F0ACCF80E099E020915001EA
:1009F000821758F4E0915101F0915201899FE00D66
:100A0000F11D112410868F5FF1CFDF91CF911F91DF
:100A10000F91FF90EF900895FF920F931F93CF9344
:100A2000DF938A30910508F061C08B01EC01F090F2
:100A300050010E94860440E0E02F5FEF5F0DC2305E
:100A4000D10509F449C088F42097E9F08E2F9BE086
:100A5000C130D105F1F04F5F541788F7DF91CF9186
:100A60001F910F91FF900C94F703C330D105B9F19A
:100A7000C430D10581F781E00115110509F480E04A
:100A8000819599E006C081E00115110509F080E02B
:100A90009CE0642F70E0209150012150330B261B05
:100AA000370B220F331FA0915301B0915401A20FB5
:100AB000B31F9C93209150012150330B261B370B01
:100AC000220F331F6091530170915401260F371F7D
:100AD000D90111968C93BFCF8E2F9AE0DACF81E0A7
:100AE0000115110509F480E09FE0D3CF21E06130CA
:100AF000710509F020E00B9761F0209359016130F6
:100B0000710549F4DF91CF911F910F91FF900C94E3
:100B1000920420935A01DF91CF911F910F91FF9082
:100B20000895DF92EF92FF920F931F93CF93DF937D
:100B300090915001891708F058C099E0899F800171
:100B40001124F12CE12CC82FD0E0DD24D394DE0C4D
:100B5000E0915101F0915201E00FF11F808590E08A
:100B60000E2C02C0959587950A94E2F780FF2DC060
:100B70000E948604809150018150990B8C1B9D0B23
:100B8000880F991F2091530130915401820F931FB8
:100B9000FC01D082E0915101F0915201E00FF11F70
:100BA000EE0DFF1D4081809150018150990B8C1BEF
:100BB0009D0B880F991F2091530130915401820F92
:100BC000931FFC0141830E94F703FFEFEF1AFF0A16
:100BD00088E0E816F10409F0B8CF809151019091B6
:100BE0005201080F191FF8011086DF91CF911F9154
:100BF0000F91FF90EF90DF900895CF93DF93C82F70
:100C0000D62F842F9091480191110E941D0399E0E5
:100C1000C99FA0011124A0915101B0915201A40FCC
:100C2000B51F6D2F70E09091490127E030E0261B41
:100C3000370B911101C09B01A20FB31F8C93E09160
:100C40005101F0915201E40FF51F20858091490177
:100C50008823E1F047E050E0461B570B81E090E02D
:100C6000A0E0B0E004C0880F991FAA1FBB1F4A95DF
:100C7000D2F7822B808780915901882319F08C2F1D
:100C80000E94910581E0DF91CF91089581E090E08D
:100C9000A0E0B0E004C0880F991FAA1FBB1FDA951F
:100CA000D2F7E7CF8F929F92AF92BF92CF92DF920F
:100CB000EF92FF920F931F93CF93DF9399E0899F59
:100CC000D001112401E010E020E030E0480159019A
:100CD000062E04C0880C991CAA1CBB1C0A94D2F7CF
:100CE000F82C982D9095E7E0F0E0E61BF10904C0A0
:100CF000000F111F221F331FEA95D2F7E02E009537
:100D000030E020E050E0C7E0D0E0B901E0915101CF
:100D1000F0915201EA0FFB1FB09049011091480178
:100D20006A01022E02C0D594C7940A94E2F7C0FE6D
:100D30002EC0BB2019F0BE01621B730BE60FF71F1C
:100D400070816F2D11116E2D762B70832F5F3F4FA9
:100D500028303105D1F62091510130915201A20F76
:100D6000B31F9FEF18969C939091590191110E9487
:100D7000910581E0DF91CF911F910F91FF90EF904E
:100D8000DF90CF90BF90AF909F908F900895BB2041
:100D900019F0BE01621B730BE60FF71F6081792FFC
:100DA0001111702F67236083D1CF462F682F677092
:100DB00023E0969587952A95E1F750914701209178
:100DC0005001552321F0821730F40C9452068217FB
:100DD00010F40C94FD0580E0089520914701909156
:100DE0005001222331F0891750F4683041F00C94FF
:100DF000FD05891720F4683011F00C94520680E04C
:100E000008950F931F93CF938C01C0E0F801419197
:100E10008F016C2F80E00E94ED06CF5FC830B1F7E4
:100E2000CF911F910F9108950F931F93CF93DF934D
:100E3000382FDB0180915001C0E0882309F455C0B0
:100E4000E0915101F091520180914901C32FD0E00E
:100E50009091470120914801992309F44EC08823BD
:100E600009F449C087E090E08C1B9D0BE80FF91F47
:100E7000808107E010E00A1B1B0B21114DC041E0EF
:100E800050E060E070E00A2E04C0440F551F661F5A
:100E9000771F0A94D2F7482B4083E0915101F091DB
:100EA000520120858091490190914701992309F4CD
:100EB0005AC0882309F44BC047E050E04C1B5D0B3F
:100EC00081E090E0A0E0B0E004C0880F991FAA1F65
:100ED000BB1F4A95D2F7822B8087C0915901CC2342
:100EE00009F461C080E00E9491058C2FDF91CF91C1
:100EF0001F910F910895CE01B9CF8823C9F087E0E3
:100F000090E0861B970BE80FF91F8081222391F058
:100F100007E010E00C1B1D0B41E050E060E070E0CA
:100F200004C0440F551F661F771F0A95D2F7B3CF31
:100F3000CB01E9CF41E050E060E070E0032E04C057
:100F4000440F551F661F771F0A94D2F7A4CF81E084
:100F500090E0A0E0B0E004C0880F991FAA1FBB1F5B
:100F60003A95D2F7B8CF882391F087E090E08A1BBA
:100F70009B0B41E050E060E070E004C0440F551F5F
:100F8000661F771F8A95D2F7422B4087A6CF41E094
:100F900050E060E070E004C0440F551F661F771FEB
:100FA000AA95D2F7F1CFC1E0A0CF90915001915016
:100FB00080E069E058E04FEF869F90011124A091F6
:100FC0005101B0915201A20FB31FFD01752F119273
:100FD0007A95E9F7E0915101F0915201E20FF31F88
:100FE00040878F5F981740F78091590181110C94C9
:100FF000920408951F920F920FB60F9211242F930F
:101000003F938F939F93AF93BF9380913B019091B8
:101010003C01A0913D01B0913E0130913A0123E0A5
:10102000230F2D3758F50196A11DB11D20933A01CC
:1010300080933B0190933C01A0933D01B0933E010E
:1010400080913F0190914001A0914101B0914201F6
:101050000196A11DB11D80933F0190934001A09383
:101060004101B0934201BF91AF919F918F913F9108
:101070002F910F900FBE0F901F90189526E8230F09
:101080000296A11DB11DD2CFCF93DF93CDB7DEB7AE
:1010900061970FB6F894DEBF0FBECDBF789484B5CC
:1010A000826084BD84B5816084BD85B5826085BD64
:1010B00085B5816085BD80916E00816080936E00F2
:1010C00010928100809181008260809381008091E4
:1010D0008100816080938100809180008160809395
:1010E00080008091B10084608093B1008091B00055
:1010F00081608093B00080917A00846080937A0050
:1011000080917A00826080937A0080917A00816079
:1011100080937A0080917A00806880937A001092A0
:10112000C10080914D01882309F4C0C01FB7F89415
:1011300080913901811124C0E4ECF5E08491E8ED5F
:10114000F5E09491E82FF0E0EE0FFF1FE055FA4F25
:10115000A591B491EC91E92321F461E08AE00E9429
:1011600054038AE00E9435038CB580618CBD8CB538
:1011700080648CBD8DE00E9435038BE00E943503B6
:10118000809139018F5F809339011FBF80914C019D
:101190000E94350361E080914C010E94540310923B
:1011A00056011092550110925801109257018091EA
:1011B0005B0190915C018856904009F49AC0E8E682
:1011C000F0E0F0935C01E0935B0110925D0188E038
:1011D00080935E0110926101109260018FEF90E0A8
:1011E00090936301809362011092650110926401F3
:1011F000E491E63409F033C0E9E6F0E0E491E1304F
:1012000009F45DC082E090E0E23029F5EAE6F0E022
:101210008491EBE6F0E0E49190E0982F88278E0F20
:10122000911D9093610180936001ECE6F0E0849160
:10123000EDE6F0E0E49190E0982F88278E0F911D65
:101240009093630180936201EEE6F0E0E491E09315
:101250005E0187E090E09093650180936401C09007
:101260006401D0906501F12CE12C20916001309156
:101270006101409162015091630160E042175307A0
:1012800008F435C0F601E859FF4F8491681708F457
:10129000682F90E0B0E0A0E00196A11DB11DC80E3E
:1012A000D91EEA1EFB1E2F5F3F4FE8CF80914A01F7
:1012B0000E94350380914B010E94350367CFEAE617
:1012C000F0E0E491F0E0F0936101E0936001EBE67F
:1012D000F0E0E491F0E0F0936301E0936201ECE66A
:1012E000F0E0E491E0935E0185E090E0B4CF60939C
:1012F0005F011091500149E0149FC00111240E9428
:10130000250C7C019093520180935101812F90E034
:10131000880F991F0E94250C9093540180935301CC
:10132000892B71F1EF2861F170E060E083E090E0DB
:101330000E940C0567E070E081E090E00E940C05DF
:1013400067E070E082E090E00E940C0570E060E0F1
:1013500084E090E00E940C050E94D50770E060E0F8
:1013600090E080E00E940C0570E060E08BE090E08F
:101370000E940C0561E070E08AE090E00E940C059C
:1013800061E070E083E090E00E940C0560ED77E0A2
:1013900080E090E00E94C50370E060E083E090E0B0
:1013A0000E940C0565E070E082E090E00E940C0570
:1013B00077E0872E912C0E94D50770E060E080E0F6
:1013C0000E94140767E070E087E00E94140767E05E
:1013D00070E080E00E94140770E060E087E00E9407
:1013E000140768EC70E080E090E00E94C50363E0C1
:1013F00070E083E00E94140764E070E083E00E94E4
:10140000140763E070E084E00E94140764E070E079
:1014100084E00E94140760E971E080E090E00E949F
:10142000C50310E000E06AEAC8010E94D50668EC36
:1014300070E080E090E00E94C50365E5C801019678
:101440000E94D50668EC70E080E090E00E94C50341
:101450000E5F1F4F0830110531F760E971E080E041
:1014600090E00E94C5030CE010E069E0D62ECC2489
:10147000CA94909150019150509159011092590184
:1014800080E08D9D90011124F12CE12CE09151011F
:10149000F0915201E20FF31FEE0DFF1D40814095C8
:1014A0004083EFEFEE1AFE0AF8E0EF16F10471F751
:1014B000E0915101F0915201E20FF31FC0868F5F5E
:1014C0009817F8F65093590151110E94920468EC54
:1014D00070E080E090E00E94C5030150110949F6D8
:1014E000809100018F5F8B37DCF580930001D12C58
:1014F000C12C0E94D50720910001022E000C330B55
:10150000C601209059014090640150906501712CF2
:10151000612C40916001509161012417350708F456
:1015200049C060916201709163016217730708F40A
:1015300041C060915B0170915C01FB01E40DF51D00
:101540004217530778F4E4914E0E511C611C711C34
:10155000EFEF4E1A5E0A6E0A7E0A4F5F5F4FEDCFC5
:1015600081E6C3CFE491FFEF4F1A5F0A6F0A7F0A4B
:10157000109259010E2F10E0EC2DE81B0E2E000CDE
:10158000FF0BE017F1078CF4E40DF51D60915B0192
:1015900070915C01E60FF71F64915C0121E0A21AD3
:1015A000B1080E94D506C501E7CF2092590121104C
:1015B0000E94920468EC70E080E090E00E94C50315
:1015C0004FEFC41AD40A8CE0C816D10409F091CFA9
:1015D0000E94D5078FE291E00E94010760E971E067
:1015E00080E090E00E94C50387E291E00E9401073D
:1015F00060E971E080E090E00E94C5038FE191E036
:101600000E94010760E971E080E090E00E94C5035C
:1016100087E191E00E94010760E971E080E090E0DD
:101620000E94C5038FE091E00E94010760E971E02C
:1016300080E090E00E94C50387E091E00E940107EE
:1016400060E971E080E090E00E94C50320905001C5
:101650002A942E867090590110925901D12C209015
:1016600047012D8660905001309048013F8659E037
:10167000552ED59C20011124598A488AA0905101E9
:10168000B0905201A40CB51CC0904901CE01019646
:101690009A8789879C878B8707E010E02D8422201A
:1016A00009F474C03F84332009F469C0C401801B6D
:1016B000910B91E001C0990F8A95EAF7D61408F0D2
:1016C00081C030E020E080E0622FA401421B530B78
:1016D000C11001C0A9014A0D5B1DFA0140814923D7
:1016E00061F0212C312C2101239404C0220C331CE5
:1016F000441C551C6A95D2F782292F5F3F4F283032
:10170000310511F7EB85FC858193FC87EB87015050
:10171000110920F610E0E985FA854191FA87E987F9
:10172000612F8D2D0E94ED061F5F1830A1F7E0910B
:101730005101F091520128883988E20DF31D3324BC
:101740003A943086D3944E844D1408F088CF70922A
:10175000590171100E94920468E572E080E090E007
:101760000E94C50321E0E21AF10809F06FCF80E082
:1017700090E0892B09F41FCE0E9400001CCE91E05E
:10178000002E01C0990F0A94EAF798CFD614D0F42E
:10179000C8013F84332061F0CC2019F0C401801BC4
:1017A000910B8A0D9B1DFC0180810E941D03AACF15
:1017B000CC2019F0C401801B910B8A0D9B1DFC01EC
:1017C0008081A0CF80E09ECFE5E4F1E082E08583D8
:1017D00084E0868383E08783108688E391E09287A4
:1017E000818781E08387848B25E030E0318320830B
:1017F000128213828483089580914D01882399F089
:101800009FB7F89480913901882319F08150809313
:10181000390180913901811105C08CB58F7B8CBD58
:10182000109244019FBF80915101909152010E94FA
:10183000C10C80915301909154010C94C10CEE0F96
:10184000FF1F0590F491E02D09940F931F93CF9300
:10185000DF938230910510F482E090E0E09168011E
:10186000F091690130E020E0B0E0A0E0309799F419
:101870002115310509F44AC0281B390B24303105E4
:10188000D8F58A819B816115710589F1FB019383EC
:101890008283FE0111C0408151810281138148176A
:1018A0005907E0F04817590799F4109761F012961C
:1018B0000C93129713961C933296CF01DF91CF9120
:1018C0001F910F9108950093680110936901F4CF5F
:1018D0002115310551F04217530738F0A901DB01FA
:1018E0009A01BD01DF01F801C1CFEF01F9CF90935B
:1018F000690180936801CDCFFE01E20FF31F819350
:1019000091932250310939832883D7CF20916601E2
:1019100030916701232B41F42091030130910401A0
:1019200030936701209366012091010130910201FB
:101930002115310541F42DB73EB740910501509175
:101940000601241B350BE0916601F0916701E21757
:10195000F307A0F42E1B3F0B2817390778F0AC01D2
:101960004E5F5F4F2417350748F04E0F5F1F5093AF
:10197000670140936601819391939FCFF0E0E0E08F
:101980009CCFCF93DF930097E9F0FC01329713824D
:101990001282A0916801B0916901ED0130E020E070
:1019A0001097A1F420813181820F931F209166014D
:1019B000309167012817390709F061C0F09367017A
:1019C000E0936601DF91CF910895EA01CE17DF071A
:1019D000E8F54A815B819E0141155105B1F7E901A6
:1019E000FB83EA8349915991C40FD51FEC17FD077A
:1019F00061F4808191810296840F951FE90199839A
:101A00008883828193819B838A83F0E0E0E0129651
:101A10008D919C9113970097B9F52D913C91119759
:101A2000CD010296820F931F2091660130916701CC
:101A30002817390739F6309751F51092690110923D
:101A40006801B0936701A0936601BCCFD383C283C2
:101A500040815181840F951FC817D90761F44E5FEB
:101A60005F4F88819981480F591F518340838A8134
:101A70009B81938382832115310509F0B0CFF093C8
:101A80006901E09368019ECFFD01DC01C0CF1382A4
:101A90001282D7CFDC0101C06D9341505040E0F776
:101AA000089512E0C2EFD2E004C0FE010E941F0CB4
:0C1AB0002196C33FD107C9F7F894FFCF7F
:101ABC006100006A0180003C7ED7FFC3FFFFDB188A
:101ACC007E9999FFFFFFA5187EFFDBFFFFFFA5188E
:101ADC007EDBFFFFFFFFA5187EBDFFFFFFFFA518F4
:081AEC007EFFBDFFFFFFA50016
:00000001FF
