:100000000C945D000C9485000C9485000C94850084
:100010000C9485000C9485000C9485000C9485004C
:100020000C9485000C9485000C9485000C9420049D
:100030000C9485000C9485000C9485000C9485002C
:100040000C947E030C9485000C94EE030C94C8036E
:100050000C9485000C9485000C9485000C9485000C
:100060000C9485000C9485000000000024002700FB
:100070002A0000000000250028002B0004040404CE
:100080000404040402020202020203030303030342
:10009000010204081020408001020408102001021F
:1000A00004081020000000080002010000030407FB
:1000B0000000000000000000DC0411241FBECFEF90
:1000C000D8E0DEBFCDBF11E0A0E0B1E0ECE1FEE0A2
:1000D00002C005900D92AA32B107D9F721E0AAE239
:1000E000B1E001C01D92A93FB207E1F710E0CDE5F4
:1000F000D0E004C02197FE010E940607CC35D1074D
:10010000C9F70E9439050C940C070C940000CF929B
:10011000DF92EF92FF92DC01A03282E0B807D4F5C3
:10012000A53BB10514F0A4EBB0E04091F70128E83D
:1001300030E0241B310947FD3395220F331F220F76
:10014000331F6901330FEE08FF084091F80128E5DD
:1001500032E0241B310947FD3395220F331F220F54
:10016000331F032E000C440B550B2C193D094E096F
:100170005F09B7FF02C0B0E0A0E00E94C10624EB17
:1001800030E040E050E00E949706C20ED31EE41E0D
:10019000F51ED601E091F601EC3080F52091F701D3
:1001A00088E890E0821B910927FD9395880F991F9D
:1001B000880F991FA817B90784F02091F80188E5E6
:1001C00092E0821B910927FD9395880F991F880F54
:1001D000991FA817B9070CF4CD010297880F991F32
:1001E0004FB7F8942E2F30E0F901EE0FFF1FE20F0A
:1001F000F31FEF52FE4F928381834FBFFF90EF902A
:10020000DF90CF90089590E0FC01EC55FF4F2491D2
:10021000FC01E057FF4F3491FC01E458FF4FE4919B
:10022000EE23C9F0222339F0233001F1A8F4213064
:1002300019F1223029F1F0E0EE0FFF1FEE58FF4FC9
:10024000A591B4918FB7F894EC91611126C03095C7
:100250003E233C938FBF08952730A9F02830C9F082
:10026000243049F7809180008F7D03C08091800009
:100270008F7780938000DFCF84B58F7784BDDBCF0D
:1002800084B58F7DFBCF8091B0008F778093B000D5
:10029000D2CF8091B0008F7DF9CF3E2BDACF3FB720
:1002A000F89480912C0190912D01A0912E01B09194
:1002B0002F0126B5A89B05C02F3F19F00196A11D5F
:1002C000B11D3FBFBA2FA92F982F8827BC01CD01A0
:1002D000620F711D811D911D42E0660F771F881FFF
:1002E000991F4A95D1F708958F929F92AF92BF922E
:1002F000CF92DF92EF92FF920E944F014B015C017F
:1003000084E1C82ED12CE12CF12C0E944F016819F8
:1003100079098A099B09683E734081059105A8F314
:1003200021E0C21AD108E108F10888EE880E83E0C6
:10033000981EA11CB11CC114D104E104F10429F7D9
:10034000FF90EF90DF90CF90BF90AF909F908F90F5
:100350000895AF92BF92CF92DF92EF92FF920F93E8
:100360001F93CF93DF936C017B018B01040F151F4B
:10037000EB015E01AE18BF08C017D10759F06991B3
:10038000D601ED91FC910190F081E02DC601099517
:10039000892B79F7C501DF91CF911F910F91FF90C4
:1003A000EF90DF90CF90BF90AF900895FC01538DF8
:1003B000448D252F30E0842F90E0821B930B54173F
:1003C00010F0CF96089501970895FC01918D828DCC
:1003D000981761F0A28DAE0FBF2FB11D5D968C9165
:1003E000928D9F5F9F73928F90E008958FEF9FEFA4
:1003F0000895FC01918D828D981731F0828DE80F60
:10040000F11D858D90E008958FEF9FEF08952FB730
:10041000F8948091300190913101A0913201B09116
:1004200033012FBF80933C0190933D01A0933E0187
:10043000B0933F0184E391E00E94F90197FF26C049
:100440002FB7F8948091300190913101A091320141
:10045000B09133012FBF40913C0150913D0160911B
:100460003E0170913F01841B950BA60BB70B409189
:1004700038015091390160913A0170913B01841724
:100480009507A607B707B0F28FEF9FEF0895FC011D
:10049000918D228D892F90E0805C9F4F821B910966
:1004A0008F739927089584E391E00E94470221E029
:1004B000892B09F420E0822F089580E090E0892BB9
:1004C00029F00E94530281110C9400000895FC0150
:1004D000A48DA80FB92FB11DA35ABF4F2C91848DA5
:1004E00090E001968F739927848FA689B7892C9302
:1004F000A089B1898C91837080648C93938D848D55
:10050000981306C00288F389E02D80818F7D808357
:100510000895EF92FF920F931F93CF93DF93EC0117
:1005200081E0888F9B8D8C8D98131AC0E889F9899A
:10053000808185FF15C09FB7F894EE89FF8960839D
:10054000E889F98980818370806480839FBF81E01E
:1005500090E0DF91CF911F910F91FF90EF90089560
:10056000F62E0B8D10E00F5F1F4F0F731127E02E3B
:100570008C8D8E110CC00FB607FCFACFE889F98973
:10058000808185FFF5CFCE010E946702F1CFEB8D10
:10059000EC0FFD2FF11DE35AFF4FF0829FB7F89447
:1005A0000B8FEA89FB8980818062CFCFCF93DF9365
:1005B000EC01888D8823B9F0AA89BB89E889F9897B
:1005C0008C9185FD03C0808186FD0DC00FB607FCB0
:1005D000F7CF8C9185FFF2CF808185FFEDCFCE01E3
:1005E0000E946702E9CFDF91CF910895FC0101904D
:1005F0000020E9F73197AF01481B590BBC0184E398
:1006000091E00C94A9018F929F92AF92BF92CF92EA
:10061000DF92EF92FF92CF93DF93CDB7DEB7A19732
:100620000FB6F894DEBF0FBECDBF6C0182E191E042
:100630000E94F6020D2C000CEE08FF08F7FE43C0E6
:100640006DE284E391E00E94890222273327A90109
:100650002C193D094E095F0919A2CE0181967C0132
:100660009AE0892E912CA12CB12CCA01B901A501C7
:1006700094010E94C906605DF70162937F01211514
:1006800031054105510589F7E114F10419F0C7015D
:100690000E94F6028FE191E00E94F60287E291E06B
:1006A0000E94F602A1960FB6F894DEBF0FBECDBF32
:1006B000DF91CF91FF90EF90DF90CF90BF90AF9000
:1006C0009F908F900895A701960119A2CE0181965F
:1006D0007C018AE0882E912CA12CB12CCA01B90191
:1006E000A50194010E94C906605DF70162937F0134
:1006F000211531054105510589F7C6CF1F920F928B
:100700000FB60F9211242F933F938F939F93AF9324
:10071000BF938091300190913101A0913201B0914D
:10072000330130912B0123E0230F2D3758F501962B
:10073000A11DB11D20932B018093300190933101B5
:10074000A0933201B093330180912C0190912D013F
:10075000A0912E01B0912F010196A11DB11D809392
:100760002C0190932D01A0932E01B0932F01BF91E6
:10077000AF919F918F913F912F910F900FBE0F904E
:100780001F90189526E8230F0296A11DB11DD2CF08
:100790001F920F920FB60F9211242F933F934F93F6
:1007A0005F936F937F938F939F93AF93BF93EF93D9
:1007B000FF9384E391E00E946702FF91EF91BF9164
:1007C000AF919F918F917F916F915F914F913F91E9
:1007D0002F910F900FBE0F901F9018951F920F92A0
:1007E0000FB60F9211242F938F939F93EF93FF9344
:1007F000E0914401F09145018081E0914A01F0913E
:100800004B0182FD1BC0908180914D018F5F8F73E2
:1008100020914E01821741F0E0914D01F0E0EC5C37
:10082000FE4F958F80934D01FF91EF919F918F9196
:100830002F910F900FBE0F901F9018958081F4CFCD
:100840001F920F920FB60F9211242F933F934F9345
:100850005F936F937F938F939F93AF93BF93CF9348
:10086000DF93EF93FF9380912A01C091F501D0E0CF
:1008700087FF24C0109285001092840080912A0185
:100880008F5F80932A0180912A01082E000C990B1A
:100890008C179D0724F480912A018C30C4F180913B
:1008A000840090918500049680349C4908F47AC0B5
:1008B0008091840090918500049676C080912A01F1
:1008C000082E000C990B8C179D07C4F6E0912A01A5
:1008D0008E2FEE0F990BFC01EE0FFF1FE80FF91F93
:1008E000EF52FE4F808186FFC9CFE0912A018E2F03
:1008F000EE0F990BFC01EE0FFF1FE80FF91FEF52EF
:10090000FE4F808160E08F730E940301B7CF20917A
:10091000840030918500E0912A018E2FEE0F990B13
:10092000FC01EE0FFF1FE80FF91FEF52FE4F818110
:100930009281820F931F9093890080938800E091A9
:100940002A018E2FEE0F990BFC01EE0FFF1FE80F0F
:10095000F91FEF52FE4F808186FF11C0E0912A01FE
:100960008E2FEE0F990BFC01EE0FFF1FE80FF91F02
:10097000EF52FE4F808161E08F730E940301FF916F
:10098000EF91DF91CF91BF91AF919F918F917F9127
:100990006F915F914F913F912F910F900FBE0F90EC
:1009A0001F90189580E49CE99093890080938800BB
:1009B0008FEF80932A01E3CF109237011092360116
:1009C00088EE93E0A0E0B0E0809338019093390185
:1009D000A0933A01B0933B0184E091E090933501FC
:1009E0008093340185EC90E0909341018093400125
:1009F00084EC90E0909343018093420180EC90E07E
:100A0000909345018093440181EC90E090934701DD
:100A10008093460182EC90E09093490180934801D5
:100A200086EC90E090934B0180934A0110924D0127
:100A300010924E0110924F01109250018091F501D9
:100A40008C3098F491E0980F9093F5018093F60123
:100A500090E0FC01EE0FFF1FE80FF91FEF52FE4F71
:100A600088EB9BE09283818308958FEF8093F6015A
:100A70000895789484B5826084BD84B5816084BD16
:100A800085B5826085BD85B5816085BD80916E002C
:100A9000816080936E00109281008091810082605D
:100AA000809381008091810081608093810080919A
:100AB00080008160809380008091B1008460809389
:100AC000B1008091B00081608093B00080917A0085
:100AD000846080937A0080917A00826080937A00AB
:100AE00080917A00816080937A0080917A0080689A
:100AF00080937A001092C1008091F6018C3008F04A
:100B00006AC0E6E9F0E02491E2E8F0E0849188230D
:100B100099F090E0880F991FFC01E859FF4FA591CB
:100B2000B491FC01EE58FF4F859194918FB7F894E2
:100B3000EC91E22BEC938FBF8091F601282F30E0EF
:100B4000F901EE0FFF1FE20FF31FEF52FE4F9081EE
:100B5000907C966090839EE89093F70194E6909342
:100B6000F8012CE0622F0E94FA06829FB001112446
:100B700030E020E0AB01420F531FFA01EE0FFF1FE0
:100B8000E40FF51FEF52FE4F908196FD16C02F5FC8
:100B90003F4F2C30310571F781110FC0109280004A
:100BA00082E0809381001092850010928400B19AB7
:100BB00080916F00826080936F00E091F6018E2F2C
:100BC00090E0FC01EE0FFF1FE80FF91FEF52FE4F00
:100BD000808180648083E0914401F091450182E04E
:100BE0008083E0914001F09141011082E091420147
:100BF000F09143018FEC808310924C01E091480109
:100C0000F091490186E08083E0914601F09147012F
:100C1000808180618083E0914601F091470180816D
:100C200088608083E0914601F0914701808180686F
:100C30008083E0914601F091470180818F7D808320
:100C4000C0E0D0E084E391E00E944702892B09F4E0
:100C500063C00E940702FC0197FD54C08D329105CC
:100C600021F0C0970A9708F046C0C12CD12C76011C
:100C700010E0E130F105D9F0ED32F10509F440C0A2
:100C8000CF01C0970A9798F4AAE0B0E0A7019601B7
:100C90000E94B6066F01FF0FEE08FF08C60ED71EB2
:100CA000E81EF91E80E3C81AD108E108F10884E3C0
:100CB00091E00E94E5010E940702FC01C0970A979B
:100CC000C0F2E130F105A9F2112341F0F094E09473
:100CD000D094C094C11CD11CE11CF11CC601D7FEEC
:100CE00015C090E080E00E948700C6010E940303C7
:100CF0000E947401A7CF84E391E00E94E501A9CF8F
:100D000011E0D5CFC12CD12C7601E8CF853B9105E0
:100D100054F384EB90E0E7CF209709F493CF0E943F
:100D20005302882309F48ECF0E9400008BCF052E3A
:100D300097FB1EF400940E94AE0657FD07D00E9458
:100D4000C90607FC03D04EF40C94AE0650954095AE
:100D5000309521953F4F4F4F5F4F08959095809567
:100D6000709561957F4F8F4F9F4F08950E94EB06BE
:100D7000A59F900DB49F900DA49F800D911D1124EF
:100D80000895B7FF0C94B6060E94B606821B930B1B
:100D90000895A1E21A2EAA1BBB1BFD010DC0AA1FBC
:100DA000BB1FEE1FFF1FA217B307E407F50720F0D4
:100DB000A21BB30BE40BF50B661F771F881F991F4F
:100DC0001A9469F760957095809590959B01AC0198
:100DD000BD01CF010895A29FB001B39FC001A39FA1
:100DE000700D811D1124911DB29F700D811D112464
:100DF000911D0895991B79E004C0991F961708F07A
:100E0000961B881F7A95C9F780950895EE0FFF1FEE
:0C0E10000590F491E02D0994F894FFCFB8
:100E1C00000000008902A901D601D6024702E501B3
:100E2C00F9014D6F7669656E646F20613A20002080
:0A0E3C00677261646F73000D0A0015
:00000001FF
