:100000000C9458000C9480000C9480000C94800098
:100010000C9480000C9480000C9480000C94800060
:100020000C9480000C9480000C9480000C94800050
:100030000C9480000C9480000C9480000C94800040
:100040000C94F7030C9480000C9480000C948000B6
:100050000C9480000C9480000C9480000C94800020
:100060000C9441040C94800000000000250028003E
:100070002B00040404040404040402020202020229
:10008000030303030303010204081020408001025C
:1000900004081020010204081020000000080002DB
:1000A00001000003040700000000000000006005DC
:1000B00011241FBECFEFD8E0DEBFCDBF11E0A0E01E
:1000C000B1E0EAEBFDE002C005900D92A837B10760
:1000D000D9F722E0A8E7B1E001C01D92A335B2072D
:1000E000E1F710E0C8E5D0E004C02197FE010E94CE
:1000F000D506C735D107C9F70E9480050C94DB06E9
:100100000C94000090E0FC01E656FF4F2491FC01A6
:10011000EA57FF4F3491FC01EE58FF4FE491EE2374
:10012000C9F0222339F0233001F1A8F4213019F16C
:10013000223029F1F0E0EE0FFF1FE859FF4FA591A3
:10014000B4918FB7F894EC91611126C030953E239D
:100150003C938FBF08952730A9F02830C9F0243090
:1001600049F7809180008F7D03C0809180008F7758
:1001700080938000DFCF84B58F7784BDDBCF84B5DB
:100180008F7DFBCF8091B0008F778093B000D2CF6E
:100190008091B0008F7DF9CF3E2BDACF3FB7F89436
:1001A0008091370290913802A0913902B0913A02C1
:1001B00026B5A89B05C02F3F19F00196A11DB11DC2
:1001C0003FBFBA2FA92F982F8827BC01CD01620FFE
:1001D000711D811D911D42E0660F771F881F991FB9
:1001E0004A95D1F708958F929F92AF92BF92CF9286
:1001F000DF92EF92FF924B015C010E94CE006B01F7
:100200007C010E94CE006C197D098E099F09683E11
:10021000734081059105A8F321E0821A9108A10895
:10022000B10888EEC80E83E0D81EE11CF11C8114D1
:100230009104A104B10429F7FF90EF90DF90CF90D3
:10024000BF90AF909F908F90089508950895AF92BA
:10025000BF92CF92DF92EF92FF920F931F93CF93B3
:10026000DF936C017B018B01040F151FEB015E0115
:10027000AE18BF08C017D10759F06991D601ED91AA
:10028000FC910190F081E02DC6010995892B79F749
:10029000C501DF91CF911F910F91FF90EF90DF90FB
:1002A000CF90BF90AF90089508952091B901260F87
:1002B0003327331F21323105ECF420910202FC0177
:1002C00090E080E0243069F082E00895A091B901C7
:1002D0002191AC0147565E4FA40FB52FB11D2C9351
:1002E0000196861798F38091B901680F6093B90160
:1002F00080E0089581E008951092020281E08093E9
:1003000001021092DC0161E082E10E94820061E062
:1003100083E10E948200E9EBF0E080818E7F8083A0
:1003200080818D7F808388E48093B80085E480930A
:10033000BC000895CF93DF9391E0909398018823B8
:10034000B9F0C091B800D091BA008091BC008A7B0E
:100350008093BC0060E082E10E94820060E083E163
:100360000E9482000E947C01D093BA00C093B80022
:10037000DF91CF9108950895E0913102809130028C
:10038000E81730F4F0E0E858FE4F808190E00895DF
:100390008FEF9FEF089590913102809130022FEFFF
:1003A0003FEF981748F4E92FF0E0E858FE4F20811E
:1003B00030E09F5F90933102C9010895809130022F
:1003C00090913102891B990B0895CF92DF92EF92A1
:1003D000FF920F931F93CF93DF937C01CB018A0190
:1003E00020910802222389F0EB016B01C40ED51E77
:1003F000CC15DD0569F06991D701ED91FC91019073
:10040000F081E02DC7010995F3CF642F0E945501BB
:10041000C801DF91CF911F910F91FF90EF90DF9076
:10042000CF900895CF93DF931F92CDB7DEB7698346
:10043000209108022223F9F020912E02203258F058
:1004400021E030E0FC013383228390E080E00F90D4
:10045000DF91CF91089580912F02E82FF0E0E75FC0
:10046000FD4F998190838F5F80932F0280932E029E
:1004700081E090E0ECCF61E0CE0101960E94550151
:10048000F7CFCF92DF92EF92FF920F931F93CF930C
:10049000DF93FC01C48121E020930802C09329026C
:1004A00010922F0210922E028385682B8BE392E02C
:1004B0000E941202D0912E02D13208F092C00E9406
:1004C000CE006B017C0180910202811165C082E047
:1004D0008093020281E0809301028FEF80930002FB
:1004E0001092FF01D093FE01A9E0B2E0EEEDF1E041
:1004F00080E0D81385C01092DD018091DD01CC0F22
:10050000C82BC093DD018091DC01813009F07CC0F3
:100510001092DC010E94CE006B017C018091DD0114
:100520008093BB008091040290910502A091060285
:10053000B0910702892B8A2B8B2B99F00E94CE0059
:1005400000910402109105022091060230910702E9
:100550006C197D098E099F090617170728073907A7
:10056000E0F18091BC0083FDD9CF85EC8093BC0085
:100570000E94CE006B017C0180910202823009F45E
:1005800045C0809100028F3F61F18091000280326E
:1005900041F18091000225C08091040290910502F2
:1005A000A0910602B0910702892B8A2B8B2B09F4AC
:1005B0008ACF0E94CE000091040210910502209182
:1005C0000602309107026C197D098E099F090617F2
:1005D00017072807390708F076CF809103020E9499
:1005E0009A0110922F0210922E0210920802DF91AF
:1005F000CF911F910F91FF90EF90DF90CF900895D2
:100600009D9191938F5F75CF85EEB0CF809104025D
:1006100090910502A0910602B0910702892B8A2BC6
:100620008B2B09F4A9CF0E94CE00009104021091F7
:10063000050220910602309107026C197D098E098E
:100640009F09061717072807390708F095CFC5CF68
:1006500090E080E00895FC0101900020E9F73197D7
:10066000AF01481B590BBC0187E492E00C942701B1
:100670000F931F93CF938C01C62F0E9441026C2FC2
:100680006460C8010E9441026C2F6B7FC8010E9408
:10069000410283EC90E00197F1F7CF911F910F9108
:1006A00008950F931F93CF93DF938C01D62FC42F00
:1006B000607F642B0E94380380E1D89FB001112431
:1006C0006C2BC801DF91CF911F910F910C943803CF
:1006D000CF93DF93CDB7DEB728970FB6F894DEBF80
:1006E0000FBECDBF98E0E0E4F1E0DE01119601908D
:1006F0000D929A95E1F790914F02981710F48FEFB1
:10070000890F90E0880F991F21E030E02C0F3D1FEA
:10071000820F931FFC016081606840E087E492E0F3
:1007200028960FB6F894DEBF0FBECDBFDF91CF91F4
:100730000C94510341E00E94510381E090E0089540
:100740000F931F93CF93DF938B0198E0899FB001A4
:100750001124606440E087E492E00E945103E801C4
:10076000085F1F4F699187E492E00E949A03C017C7
:10077000D107C1F7DF91CF911F910F91089585EDBA
:100780008093BC008091040290910502A091060222
:10079000B09107020796A11DB11D23E0B695A7955C
:1007A000979587952A95D1F72091BC0024FD03C029
:1007B0001092020208954091040250910502609146
:1007C000060270910702452B462B472B69F30097D1
:1007D000A105B10541F025E32A95F1F70000019745
:1007E000A109B109E1CF809103020C949A011F92F3
:1007F0000F920FB60F9211242F933F938F939F93D5
:10080000AF93BF938091330290913402A09135024F
:10081000B09136023091320223E0230F2D3758F584
:100820000196A11DB11D2093320280933302909353
:100830003402A0933502B093360280913702909132
:100840003802A0913902B0913A020196A11DB11D62
:100850008093370290933802A0933902B0933A0202
:10086000BF91AF919F918F913F912F910F900FBEAC
:100870000F901F90189526E8230F0296A11DB11D19
:10088000D2CF1F920F920FB60F9211242F933F9346
:100890004F935F936F937F938F939F93AF93BF9388
:1008A000EF93FF938091B900887F803609F44AC0A6
:1008B000F0F5883209F4A7C018F5803109F49BC01F
:1008C000B8F4882309F4F9C0883009F494C0FF9182
:1008D000EF91BF91AF919F918F917F916F915F91B8
:1008E0004F913F912F910F900FBE0F901F90189531
:1008F000883109F488C0803251F78093000214C017
:10090000803409F49DC040F48033B9F38833F9F69C
:100910008093000285ECB0C0803509F485C088352D
:1009200009F496C0883499F60E94BF03D0CF883965
:1009300009F48CC038F5883729F050F4883611F066
:10094000803729F683E0809302021092DB0157C0C2
:10095000883809F47BC0803919F0803809F0B7CFA6
:100960008091DB01803208F071C0E091DB0181E011
:100970008E0F8093DB018091BB00F0E0E554FE4FC9
:1009800080833DC0803B39F0E0F4803A09F479C0BF
:10099000883A09F09CCF84E0809302021092BA0159
:1009A0001092B901E0912C02F0912D0209958091ED
:1009B000B90181110FC081E08093B90110929901B2
:1009C00009C0803C09F4A6CF883C09F4A3CF883B3A
:1009D00009F07DCFE091BA0181E08E0F8093BA01DA
:1009E000F0E0E756FE4F80818093BB009091BA0102
:1009F0008091B90129C08091DD018093BB0085EC15
:100A00008093BC0064CF9091FF018091FE01981704
:100A100058F5E091FF0181E08E0F8093FF01F0E037
:100A2000E252FE4F8081E9CFE091FF0181E08E0F1D
:100A30008093FF018091BB00F0E0E252FE4F808383
:100A40009091FF018091FE019817C8F285E8D8CFF8
:100A5000E091FF0181E08E0F8093FF018091BB0048
:100A6000F0E0E252FE4F80838091010281115CCF61
:100A700081E08093DC0184EA8093BC001092020242
:100A800026CF85EC8093BC00109202028091DB019E
:100A9000803230F4E091DB01F0E0E554FE4F10824B
:100AA0006091DB0170E0E0912A02F0912B028BEB68
:100AB00091E009951092DB010ACF1092000234CF29
:100AC000EBE3F2E01382128288EE93E0A0E0B0E064
:100AD00084839583A683B7838CE491E0918380839C
:100AE000E7E4F2E0138212828EE591E09183808345
:100AF0008FE3848384E1818784E08287138608956D
:100B0000789484B5826084BD84B5816084BD85B5E8
:100B1000826085BD85B5816085BD80916E008160F4
:100B200080936E001092810080918100826080939A
:100B3000810080918100816080938100809180009C
:100B40008160809380008091B10084608093B100C7
:100B50008091B00081608093B00080917A008460C1
:100B600080937A0080917A00826080937A008091ED
:100B70007A00816080937A0080917A008068809307
:100B80007A001092C100109231021092300210923D
:100B90002F0210922E020E947C0185E291E0909338
:100BA0002D0280932C0286E291E090932B02809399
:100BB0002A0210924C0280915102823018F098E083
:100BC00090934C0280934F0262E370E080E090E0EB
:100BD0000E94F3006091520287E492E00E94410279
:100BE00068EE73E080E090E00E94F30060E387E449
:100BF00092E00E943803CBE4D6E4CE010197F1F7EE
:100C000060E387E492E00E9438032197F1F760E304
:100C100087E492E00E94380383E592E00197F1F7C0
:100C200060E287E492E00E94380360914C026062C7
:100C300040E087E492E00E94510384E080934D02FB
:100C400040E06CE087E492E00E94510340E061E004
:100C500087E492E00E945103CBE3DFE1CE010197EC
:100C6000F1F782E080934E0240E066E087E492E094
:100C70000E94510340E062E087E492E00E94510349
:100C80002197F1F788E08093520260E087E492E0D8
:100C90000E94410268E371E080E00E94A00360E3EB
:100CA00071E081E00E94A00368E271E082E00E94AE
:100CB000A00360E271E083E00E94A00368E171E0BC
:100CC00084E00E94A00360E171E085E00E94A0033F
:100CD00068E071E086E00E94A00360E071E087E0D8
:100CE0000E94A00380E00E94680386E691E00E94D3
:100CF0002B0381E00E94680382E791E00E942B03AE
:100D000065E087E492E00E949A0363E087E492E062
:100D10000E949A0361E087E492E00E949A0362E0F5
:100D200087E492E00E949A0361E087E492E00E94E7
:100D30009A0360E287E492E00E949A0364E087E409
:100D400092E00E949A0361E087E492E00E949A0395
:100D500063E087E492E00E949A0382E791E00E94B8
:100D60002B0382E00E946803CAE0D0E066E087E4DB
:100D700092E00E949A0360E287E492E00E949A0364
:100D80002197A1F783E00E946803C4E1D0E067E007
:100D900087E492E00E949A032197C9F7C0E0D0E06F
:100DA0002097F1F30E940000FBCFEE0FFF1F05908C
:0A0DB000F491E02D0994F894FFCFB0
:100DBA000E0E041F040A110000110000110E00009B
:100DCA001F1111111F1010001F15151515151500EB
:100DDA001010101010101F00111111111F0404001F
:100DEA001F111111111F11001F11111111111100E1
:100DFA000000400014005400000000001202E50147
:100E0A002803BB01DE01CB01BC01000000009A03EC
:100E1A002701280354015550494954202D2049508F
:080E2A004E002D2D2D2D0000BE
:00000001FF
