:020000040000FA
:100000000C945C000C9479000C9479000C947900A9
:100010000C9479000C9479000C9479000C9479007C
:100020000C9479000C9479000C9479000C9479006C
:100030000C9479000C9479000C9479000C9479005C
:100040000C94EC000C9479000C9479000C947900D9
:100050000C9479000C9479000C9479000C9479003C
:100060000C9479000C947900000000002400270013
:100070002A0000000000250028002B0004040404CE
:100080000404040402020202020203030303030342
:10009000010204081020408001020408102001021F
:1000A00004081020000000080002010000030407FB
:1000B000000000000000000011241FBECFEFD8E0B8
:1000C000DEBFCDBF11E0A0E0B1E0E4ECF5E002C09E
:1000D00005900D92A431B107D9F721E0A4E1B1E078
:1000E00001C01D92A532B207E1F70E9436010C94BF
:1000F000E0020C94000090E0FC01EC55FF4F2491CD
:10010000FC01E057FF4F3491FC01E458FF4FE491AC
:10011000EE23C9F0222339F0233001F1A8F4213075
:1001200019F1223029F1F0E0EE0FFF1FEE58FF4FDA
:10013000A591B4918FB7F894EC91611126C03095D8
:100140003E233C938FBF08952730A9F02830C9F093
:10015000243049F7809180008F7D03C0809180001A
:100160008F7780938000DFCF84B58F7784BDDBCF1E
:1001700084B58F7DFBCF8091B0008F778093B000E6
:10018000D2CF8091B0008F7DF9CF3E2BDACF3FB731
:10019000F8948091210190912201A0912301B091C6
:1001A000240126B5A89B05C02F3F19F00196A11D7B
:1001B000B11D3FBFBA2FA92F982F8827BC01CD01B1
:1001C000620F711D811D911D42E0660F771F881F10
:1001D000991F4A95D1F708951F920F920FB60F926B
:1001E00011242F933F938F939F93AF93BF9380914D
:1001F0001D0190911E01A0911F01B091200130912D
:100200001C0123E0230F2D3758F50196A11DB11DC8
:1002100020931C0180931D0190931E01A0931F0148
:10022000B09320018091210190912201A09123019E
:10023000B09124010196A11DB11D809321019093DD
:100240002201A0932301B0932401BF91AF919F910C
:100250008F913F912F910F900FBE0F901F90189587
:1002600026E8230F0296A11DB11DD2CFCF93DF93B5
:10027000CDB7DEB760970FB6F894DEBF0FBECDBF27
:10028000789484B5826084BD84B5816084BD85B571
:10029000826085BD85B5816085BD80916E0081607D
:1002A00080936E0010928100809181008260809323
:1002B0008100809181008160809381008091800025
:1002C0008160809380008091B10084608093B10050
:1002D0008091B00081608093B00080917A0084604A
:1002E00080937A0080917A00826080937A00809176
:1002F0007A00816080937A0080917A008068809390
:100300007A001092C10022E030E0F901E057FF4F7F
:100310004491F901E458FF4F8491882399F090E0CB
:10032000880F991FFC01E859FF4FA591B491FC017A
:10033000EE58FF4F859194918FB7F894EC91E42B90
:10034000EC938FBF2F5F3F4F2D303105F1F61092A8
:1003500018011092190110921A0110921B010AE063
:10036000C0901801D0901901E0901A01F0901B0183
:100370002FE0C21627E2D206E104F1040CF0D7C048
:1003800082E390E0A0E0B0E0809314019093150127
:10039000A0931601B0931701C701B60128EE33E010
:1003A00040E050E00E949F021901A8EEB3E02A9FAE
:1003B00040012B9F900C3A9F900C1124C401092CF2
:1003C000000CAA0BBB0B26013701481A590A6A0A0E
:1003D0007B0AC301B20124E630E040E050E00E9415
:1003E0009F023C872B87B4E6B29F5001B39FB00CAD
:1003F0001124C5010B2C000CAA0BBB0BA30192010D
:10040000281B390B4A0B5B0BCA01B9012AE030E00B
:1004100040E050E00E949F023E872D87C601881968
:1004200099098A199B09029FB001039F700D11243D
:10043000AC01461B570B588B4F87409014015090CE
:10044000150160901601709017011414150416041C
:1004500017040CF05EC03A8229828B859C859C83B0
:100460008B83AD85BE85BE83AD832F853889388764
:100470002F83AE014F5F5F4F5A87498719E0A985E7
:10048000BA85ED91FD91BA87A987EE0FFF1FE05065
:10049000FF4F8080918092E0A92EB12CC501029778
:1004A000B40102C0759567958A95E2F761708A2D4F
:1004B0000E947B00BFEFAB1ABB0A29E0A216B10471
:1004C00069F760E0812F0E947B000E94C7004B010A
:1004D0005C010E94C700681979098A099B09683E76
:1004E000734081059105A8F361E0812F0E947B0094
:1004F0001F5F1D3021F641E0441A51086108710860
:1005000040921401509215016092160170921701E9
:1005100094CF5FEFC51AD50AE50AF50AC092180113
:10052000D0921901E0921A01F0921B0119CF80E0DC
:1005300090E0892B09F40BCF0E94000008CF052E14
:1005400097FB1EF400940E94B60257FD07D00E944C
:10055000BE0207FC03D04EF40C94B60250954095B1
:10056000309521953F4F4F4F5F4F0895909580955F
:10057000709561957F4F8F4F9F4F0895A1E21A2E7E
:10058000AA1BBB1BFD010DC0AA1FBB1FEE1FFF1F37
:10059000A217B307E407F50720F0A21BB30BE40B87
:1005A000F50B661F771F881F991F1A9469F76095CE
:1005B0007095809590959B01AC01BD01CF01089588
:1005C000F894FFCF40007900240030001900120099
:0805D000020078000000180091
:107800000C94343C0C94513C0C94513C0C94513CE1
:107810000C94513C0C94513C0C94513C0C94513CB4
:107820000C94513C0C94513C0C94513C0C94513CA4
:107830000C94513C0C94513C0C94513C0C94513C94
:107840000C94513C0C94513C0C94513C0C94513C84
:107850000C94513C0C94513C0C94513C0C94513C74
:107860000C94513C0C94513C11241FBECFEFD8E036
:10787000DEBFCDBF11E0A0E0B1E0ECE9FFE702C060
:1078800005900D92A230B107D9F712E0A2E0B1E065
:1078900001C01D92AD30B107E1F70E942D3D0C945F
:1078A000CC3F0C94003C982F959595959595959582
:1078B000905D8F708A307CF0282F295A8091C0000B
:1078C00085FFFCCF9093C6008091C00085FFFCCF60
:1078D0002093C6000895282F205DF0CF982F809127
:1078E000C00085FFFCCF9093C6000895EF92FF92F1
:1078F0000F931F93EE24FF2487018091C00087FD22
:1079000017C00894E11CF11C011D111D81E4E8164B
:1079100082E4F8068FE0080780E0180770F3E09132
:107920000401F091050109958091C00087FFE9CF1E
:107930008091C6001F910F91FF90EF9008950E94D3
:10794000763C982F8091C00085FFFCCF9093C600B5
:1079500091362CF490330CF09053892F089597555D
:10796000892F08951F930E949F3C182F0E949F3CCF
:107970001295107F810F1F9108951F93182F882350
:1079800021F00E94763C1150E1F71F9108951F935A
:10799000182F0E94763C803249F0809103018F5F5E
:1079A000809303018530C1F01F9108958091C0003C
:1079B00085FFFCCF84E18093C6008091C00085FFE5
:1079C000FCCF1093C6008091C00085FFFCCF80E102
:1079D0008093C6001F910895E0910401F091050184
:1079E00009951F9108950E94763C803241F0809164
:1079F00003018F5F80930301853081F008958091AA
:107A0000C00085FFFCCF84E18093C6008091C00058
:107A100085FFFCCF80E18093C6000895E0910401CA
:107A2000F09105010995089540E951E08823A1F0FE
:107A30002D9A28EE33E0FA013197F1F721503040CA
:107A4000D1F72D9828EE33E0FA013197F1F7215064
:107A50003040D1F7815061F708953F924F925F9285
:107A60006F927F928F929F92AF92BF92CF92DF924E
:107A7000EF92FF920F931F93CF93DF93000080E16B
:107A80008093C4001092C50088E18093C10086E015
:107A90008093C2005098589A259A81E00E94143D24
:107AA00024E1F22E9EE1E92E85E9D82E0FE0C02ECA
:107AB00010E1B12EAA24A394B1E49B2EA6E58A2E50
:107AC000F2E57F2EE0E26E2E79E4572E63E5462E36
:107AD00050E5352E0E94763C8033B1F18133B9F107
:107AE000803409F46FC0813409F476C0823409F41B
:107AF00085C0853409F488C0803531F1823521F1A3
:107B0000813511F1853509F485C0863509F48DC0BC
:107B1000843609F496C0843709F403C1853709F423
:107B200072C1863709F466C0809103018F5F80932C
:107B30000301853079F6E0910401F0910501099582
:107B40000E94763C803351F60E94F33CC3CF0E94E2
:107B5000763C803249F78091C00085FFFCCFF092DF
:107B6000C6008091C00085FFFCCF9092C600809136
:107B7000C00085FFFCCF8092C6008091C00085FFC9
:107B8000FCCF7092C6008091C00085FFFCCF609250
:107B9000C6008091C00085FFFCCF5092C600809146
:107BA000C00085FFFCCF4092C6008091C00085FFD9
:107BB000FCCF3092C6008091C00085FFFCCFB09210
:107BC000C60088CF0E94763C863808F4BDCF0E945C
:107BD000763C0E94F33C7ECF0E94763C803809F4CC
:107BE0009CC0813809F40BC1823809F43CC1883942
:107BF00009F48FC080E00E94C73C6CCF84E10E94F2
:107C0000BD3C0E94F33C66CF85E00E94BD3C0E94D3
:107C1000F33C60CF0E94763C809306010E94763C44
:107C2000809307010E94F33C55CF0E94763C80333D
:107C300009F41DC183E00E94BD3C80E00E94C73C66
:107C400049CF0E94763C809309020E94763C809343
:107C5000080280910C028E7F80930C020E94763C79
:107C6000853409F415C18091080290910902892B8D
:107C700089F000E010E00E94763CF801E85FFE4FDA
:107C800080830F5F1F4F80910802909109020817AF
:107C9000190788F30E94763C803209F045CF809125
:107CA0000C0280FF01C16091060170910701660F0F
:107CB000771F7093070160930601A0910802B091AD
:107CC00009021097C9F0E8E0F1E09B01AD014E0F09
:107CD0005F1FF999FECF32BD21BD819180BDFA9A17
:107CE000F99A2F5F3F4FE417F50799F76A0F7B1F4B
:107CF00070930701609306018091C00085FFFCCF5F
:107D0000F092C6008091C00085FFFCCFB092C60003
:107D1000E1CE83E00E94C73CDDCE82E00E94C73CFA
:107D2000D9CE0E94763C809309020E94763C8093D3
:107D300008028091060190910701880F991F909386
:107D40000701809306010E94763C853409F4A6C0A1
:107D500080910C028E7F80930C020E94763C8032D0
:107D600009F0B8CE8091C00085FFFCCFF092C6002C
:107D7000609108027091090261157105B9F140E046
:107D800050E080910C02A82FA170B82FB27011C0E2
:107D9000BB2309F45CC0E0910601F0910701319624
:107DA000F0930701E09306014F5F5F4F46175707B7
:107DB000E8F4AA2369F3F999FECF209106013091E6
:107DC000070132BD21BDF89A90B58091C00085FFB2
:107DD000FCCF9093C6002F5F3F4F30930701209355
:107DE00006014F5F5F4F4617570718F38091C00099
:107DF00085FDE5CE8091C00085FFF8CFE0CE81E023
:107E00000E94C73C67CE0E94763C803209F08CCE3F
:107E10008091C00085FFFCCFF092C6008091C00029
:107E200085FFFCCFE092C6008091C00085FFFCCFAB
:107E3000D092C6008091C00085FFFCCFC092C600E2
:107E40008091C00085FFFCCFB092C60043CEE09188
:107E50000601F091070194918091C00085FFFCCF4D
:107E60009093C6009CCF80E10E94C73C33CE0E9415
:107E7000763C0E94763C182F0E94763C112309F430
:107E800083C0113009F484C08FE00E94C73C22CE29
:107E900080910C02816080930C02E5CE80910C02EF
:107EA000816080930C0259CF809107018823880F4D
:107EB000880B8A2180930B02809106019091070123
:107EC000880F991F90930701809306018091080203
:107ED00080FF09C080910802909109020196909359
:107EE000090280930802F894F999FECF1127E091D6
:107EF0000601F0910701C8E0D1E08091080290915D
:107F00000902103091F40091570001700130D9F34B
:107F100003E000935700E89500915700017001308D
:107F2000D9F301E100935700E89509901990009169
:107F3000570001700130D9F301E000935700E89534
:107F40001395103498F011270091570001700130FB
:107F5000D9F305E000935700E895009157000170B0
:107F60000130D9F301E100935700E895329602976A
:107F700009F0C7CF103011F00296E5CF112480919F
:107F8000C00085FFB9CEBCCE8EE10E94C73CA2CD19
:0E7F900085E90E94C73C9ECDF894FFCF80008B
:00000001FF
