:100000000C945C000C9479000C9479000C947900A9
:100010000C9479000C9479000C9479000C9479007C
:100020000C9479000C9479000C9479000C9479006C
:100030000C9479000C9479000C9479000C9479005C
:100040000C940B010C9479000C9479000C947900B9
:100050000C9479000C9479000C9479000C9479003C
:100060000C9479000C947900000000080002010053
:100070000003040700000000000000000000000072
:10008000250028002B0000000000240027002A0083
:10009000040404040404040402020202020203032E
:1000A0000303030301020408102040800102040836
:1000B000102001020408102011241FBECFEFD8E049
:1000C000DEBFCDBF11E0A0E0B1E0E8E6F4E002C0A1
:1000D00005900D92A830B107D9F721E0A8E0B1E072
:1000E00001C01D92A331B207E1F70E9455010C94A3
:1000F00032020C94000090E0FC01EC55FF4F24917B
:1001000080579F4FFC018491882399F090E0880FDD
:10011000991FFC01EA57FF4FA591B491FC01E458E7
:10012000FF4F859194918FB7F894EC91E22BEC936B
:100130008FBF089590E0FC01E859FF4F2491FC0126
:10014000EC55FF4F3491FC01E057FF4FE491EE2353
:10015000C9F0222339F0233001F1A8F4213019F13C
:10016000223029F1F0E0EE0FFF1FE458FF4FA59178
:10017000B4918FB7F894EC91611126C030953E236D
:100180003C938FBF08952730A9F02830C9F0243060
:1001900049F7809180008F7D03C0809180008F7728
:1001A00080938000DFCF84B58F7784BDDBCF84B5AB
:1001B0008F7DFBCF8091B0008F778093B000D2CF3E
:1001C0008091B0008F7DF9CF3E2BDACF3FB7F89406
:1001D00080910F0190911001A0911101B091120135
:1001E00026B5A89B05C02F3F19F00196A11DB11D92
:1001F0003FBFBA2FA92F982F8827BC01CD01620FCE
:10020000711D811D911D42E0660F771F881F991F88
:100210004A95D1F708951F920F920FB60F921124AD
:100220002F933F938F939F93AF93BF9380910B0135
:1002300090910C01A0910D01B0910E0130910A0135
:1002400023E0230F2D3758F50196A11DB11D2093F2
:100250000A0180930B0190930C01A0930D01B093C0
:100260000E0180910F0190911001A0911101B091A8
:1002700012010196A11DB11D80930F0190931001F1
:10028000A0931101B0931201BF91AF919F918F91F3
:100290003F912F910F900FBE0F901F90189526E859
:1002A000230F0296A11DB11DD2CF789484B5826030
:1002B00084BD84B5816084BD85B5826085BD85B50A
:1002C000816085BD80916E00816080936E00109288
:1002D0008100809181008260809381008091810003
:1002E0008160809381008091800081608093800094
:1002F0008091B10084608093B1008091B0008160F2
:100300008093B00080917A00846080937A0080911D
:100310007A00826080937A0080917A008160809375
:100320007A0080917A00806880937A001092C100F0
:1003300085E00E947B0084E00E947B0083E00E94B5
:100340007B0082E00E947B0004E010E050E0E52E9C
:1003500050E0F52EC0900801D0900901E601CC0FC5
:10036000DD1FC050DF4F6881617085E00E949A00F8
:100370006881798175956795617084E00E949A0023
:10038000688179817595679575956795617083E04A
:100390000E949A006881798133E0759567953A9556
:1003A000E1F7617082E00E949A00C6010196B801EF
:1003B0000E940A0290930901809308010E94E600BE
:1003C0004B015C0148EE442E43E0542E612C712C0D
:1003D0000E94E600681979098A099B09683E734002
:1003E00081059105A8F321E0421A510861087108BE
:1003F00088EE880E83E0981EA11CB11C41145104A4
:100400006104710429F7E114F10409F4A3CF0E94F7
:100410000000A0CF97FB072E16F4009407D077FDBD
:1004200009D00E941E0207FC05D03EF490958195EC
:100430009F4F0895709561957F4F0895AA1BBB1B30
:1004400051E107C0AA1FBB1FA617B70710F0A61BD4
:10045000B70B881F991F5A95A9F780959095BC01F5
:08046000CD010895F894FFCFCF
:0804680008000400020001007D
:00000001FF
