:020000040000FA
:100000000C9458000C9480000C9480000C94800098
:100010000C9480000C9480000C9480000C94800060
:100020000C9480000C9480000C9480000C94800050
:100030000C9480000C9480000C9480000C94800040
:100040000C94CC030C9480000C9480000C948000E1
:100050000C9480000C9480000C9480000C94800020
:100060000C9416040C948000000000002500280069
:100070002B00040404040404040402020202020229
:10008000030303030303010204081020408001025C
:1000900004081020010204081020000000080002DB
:1000A0000100000304070000000000000000350507
:1000B00011241FBECFEFD8E0DEBFCDBF11E0A0E01E
:1000C000B1E0E4EAFCE002C005900D92A035B10772
:1000D000D9F722E0A0E5B1E001C01D92AB32B20732
:1000E000E1F710E0C8E5D0E004C02197FE010E94CE
:1000F0004A06C735D107C9F70E9455050C9450062A
:100100000C94000090E0FC01E656FF4F2491FC01A6
:10011000EA57FF4F3491FC01EE58FF4FE491EE2374
:10012000C9F0222339F0233001F1A8F4213019F16C
:10013000223029F1F0E0EE0FFF1FE859FF4FA591A3
:10014000B4918FB7F894EC91611126C030953E239D
:100150003C938FBF08952730A9F02830C9F0243090
:1001600049F7809180008F7D03C0809180008F7758
:1001700080938000DFCF84B58F7784BDDBCF84B5DB
:100180008F7DFBCF8091B0008F778093B000D2CF6E
:100190008091B0008F7DF9CF3E2BDACF3FB7F89436
:1001A00080910F0290911002A0911102B091120261
:1001B00026B5A89B05C02F3F19F00196A11DB11DC2
:1001C0003FBFBA2FA92F982F8827BC01CD01620FFE
:1001D000711D811D911D42E0660F771F881F991FB9
:1001E0004A95D1F708958F929F92AF92BF92CF9286
:1001F000DF92EF92FF924B015C010E94CE006B01F7
:100200007C010E94CE006C197D098E099F09683E11
:10021000734081059105A8F321E0821A9108A10895
:10022000B10888EEC80E83E0D81EE11CF11C8114D1
:100230009104A104B10429F7FF90EF90DF90CF90D3
:10024000BF90AF909F908F90089508950895AF92BA
:10025000BF92CF92DF92EF92FF920F931F93CF93B3
:10026000DF936C017B018B01040F151FEB015E0115
:10027000AE18BF08C017D10759F06991D601ED91AA
:10028000FC910190F081E02DC6010995892B79F749
:10029000C501DF91CF911F910F91FF90EF90DF90FB
:1002A000CF90BF90AF900895089520919101260FAF
:1002B0003327331F21323105ECF42091DA01FC01A0
:1002C00090E080E0243069F082E00895A0919101EF
:1002D0002191AC014F585E4FA40FB52FB11D2C9347
:1002E0000196861798F380919101680F60939101B0
:1002F00080E0089581E008951092DA0181E0809312
:10030000D9011092B40161E082E10E94820061E0B3
:1003100083E10E948200E9EBF0E080818E7F8083A0
:1003200080818D7F808388E48093B80085E480930A
:10033000BC000895CF93DF9391E0909370018823E0
:10034000B9F0C091B800D091BA008091BC008A7B0E
:100350008093BC0060E082E10E94820060E083E163
:100360000E9482000E947C01D093BA00C093B80022
:10037000DF91CF9108950895E091090280910802DC
:10038000E81730F4F0E0E05BFE4F808190E00895E4
:100390008FEF9FEF089590910902809108022FEF4F
:1003A0003FEF981748F4E92FF0E0E05BFE4F208123
:1003B00030E09F5F90930902C9010895809108027F
:1003C00090910902891B990B0895CF92DF92EF92C9
:1003D000FF920F931F93CF93DF937C01CB018A0190
:1003E0002091E001222389F0EB016B01C40ED51EA0
:1003F000CC15DD0569F06991D701ED91FC91019073
:10040000F081E02DC7010995F3CF642F0E945501BB
:10041000C801DF91CF911F910F91FF90EF90DF9076
:10042000CF900895CF93DF931F92CDB7DEB7698346
:100430002091E0012223F9F020910602203258F0A9
:1004400021E030E0FC013383228390E080E00F90D4
:10045000DF91CF91089580910702E82FF0E0EF51EE
:10046000FE4F998190838F5F8093070280930602ED
:1004700081E090E0ECCF61E0CE0101960E94550151
:10048000F7CFCF92DF92EF92FF920F931F93CF930C
:10049000DF93FC01C48121E02093E001C0930102BD
:1004A00010920702109206028385682B83E192E086
:1004B0000E941202D0910602D13208F092C00E942E
:1004C000CE006B017C018091DA01811165C082E070
:1004D0008093DA0181E08093D9018FEF8093D80176
:1004E0001092D701D093D601A1EEB1E0E6EBF1E096
:1004F00080E0D81385C01092B5018091B501CC0F72
:10050000C82BC093B5018091B401813009F07CC043
:100510001092B4010E94CE006B017C018091B50164
:100520008093BB008091DC019091DD01A091DE0100
:10053000B091DF01892B8A2B8B2B99F00E94CE0082
:100540000091DC011091DD012091DE013091DF018D
:100550006C197D098E099F090617170728073907A7
:10056000E0F18091BC0083FDD9CF85EC8093BC0085
:100570000E94CE006B017C018091DA01823009F487
:1005800045C08091D8018F3F61F18091D8018032C0
:1005900041F18091D80125C08091DC019091DD016D
:1005A000A091DE01B091DF01892B8A2B8B2B09F4FE
:1005B0008ACF0E94CE000091DC011091DD012091D4
:1005C000DE013091DF016C197D098E099F09061744
:1005D00017072807390708F076CF8091DB010E94C2
:1005E0009A0110920702109206021092E001DF9128
:1005F000CF911F910F91FF90EF90DF90CF900895D2
:100600009D9191938F5F75CF85EEB0CF8091DC0186
:100610009091DD01A091DE01B091DF01892B8A2B41
:100620008B2B09F4A9CF0E94CE000091DC01109120
:10063000DD012091DE013091DF016C197D098E0909
:100640009F09061717072807390708F095CFC5CF68
:1006500090E080E008950F931F93CF938C01C62FF5
:100660000E9441026C2F6460C8010E9441026C2FFD
:100670006B7FC8010E94410283EC90E00197F1F783
:10068000CF911F910F9108950F931F93CF93DF93F5
:100690008C01D62FC42F607F642B0E942B0380E136
:1006A000D89FB00111246C2BC801DF91CF911F910D
:1006B0000F910C942B03CF93DF93CDB7DEB7289720
:1006C0000FB6F894DEBF0FBECDBF98E0E0E0F1E0DA
:1006D000DE01119601900D929A95E1F79091270213
:1006E000961708F46FEF262F30E0220F331F41E0FA
:1006F00050E04C0F5D1F240F351FF9016081680F1A
:10070000606840E08FE192E028960FB6F894DEBF73
:100710000FBECDBFDF91CF910C94440341E00E9406
:10072000440381E090E0089585ED8093BC008091C2
:10073000DC019091DD01A091DE01B091DF0107960F
:10074000A11DB11D23E0B695A795979587952A958C
:10075000D1F72091BC0024FD03C01092DA01089566
:100760004091DC015091DD016091DE017091DF016B
:10077000452B462B472B69F30097A105B10541F0A6
:1007800025E32A95F1F700000197A109B109E1CF0E
:100790008091DB010C949A011F920F920FB60F9279
:1007A00011242F933F938F939F93AF93BF93809187
:1007B0000B0290910C02A0910D02B0910E023091AB
:1007C0000A0223E0230F2D3758F50196A11DB11D14
:1007D00020930A0280930B0290930C02A0930D02C7
:1007E000B0930E0280910F0290911002A09111021D
:1007F000B09112020196A11DB11D80930F0290933A
:100800001002A0931102B0931202BF91AF919F9179
:100810008F913F912F910F900FBE0F901F901895C1
:1008200026E8230F0296A11DB11DD2CF1F920F9271
:100830000FB60F9211242F933F934F935F936F93B3
:100840007F938F939F93AF93BF93EF93FF93809189
:10085000B900887F803609F44AC0F0F5883209F47F
:10086000A7C018F5803109F49BC0B8F4882309F4B7
:10087000F9C0883009F494C0FF91EF91BF91AF9116
:100880009F918F917F916F915F914F913F912F91A8
:100890000F900FBE0F901F901895883109F488C0F3
:1008A000803251F78093D80114C0803409F49DC080
:1008B00040F48033B9F38833F9F68093D80185EC9E
:1008C000B0C0803509F485C0883509F496C08834F5
:1008D00099F60E949403D0CF883909F48CC038F57A
:1008E000883729F050F4883611F0803729F683E0F4
:1008F0008093DA011092B30157C0883809F47BC0A5
:10090000803919F0803809F0B7CF8091B301803277
:1009100008F071C0E091B30181E08E0F8093B301C4
:100920008091BB00F0E0ED56FE4F80833DC0803BE0
:1009300039F0E0F4803A09F479C0883A09F09CCFA4
:1009400084E08093DA011092920110929101E0917B
:100950000402F091050209958091910181110FC067
:1009600081E0809391011092710109C0803C09F4EB
:10097000A6CF883C09F4A3CF883B09F07DCFE09156
:10098000920181E08E0F80939201F0E0EF58FE4FCC
:1009900080818093BB00909192018091910129C048
:1009A0008091B5018093BB0085EC8093BC0064CF3F
:1009B0009091D7018091D601981758F5E091D70111
:1009C00081E08E0F8093D701F0E0EA54FE4F8081E2
:1009D000E9CFE091D70181E08E0F8093D70180911C
:1009E000BB00F0E0EA54FE4F80839091D7018091E4
:1009F000D6019817C8F285E8D8CFE091D70181E0F9
:100A00008E0F8093D7018091BB00F0E0EA54FE4F37
:100A100080838091D90181115CCF81E08093B40102
:100A200084EA8093BC001092DA0126CF85EC809393
:100A3000BC001092DA018091B301803230F4E09171
:100A4000B301F0E0ED56FE4F10826091B30170E00B
:100A5000E0910202F091030283E991E0099510927E
:100A6000B3010ACF1092D80134CFE3E1F2E0138250
:100A7000128288EE93E0A0E0B0E084839583A683A1
:100A8000B7838CE091E091838083EFE1F2E0138201
:100A900012828EE191E0918380838FE3848380E1F1
:100AA000818782E0828713860895789484B5826076
:100AB00084BD84B5816084BD85B5826085BD85B502
:100AC000816085BD80916E00816080936E00109280
:100AD00081008091810082608093810080918100FB
:100AE000816080938100809180008160809380008C
:100AF0008091B10084608093B1008091B0008160EA
:100B00008093B00080917A00846080937A00809115
:100B10007A00826080937A0080917A00816080936D
:100B20007A0080917A00806880937A001092C100E8
:100B30001092090210920802109207021092060207
:100B40000E947C0185E291E090930502809304026B
:100B500086E291E0909303028093020210922402B5
:100B600080912902823018F098E0909324028093BB
:100B7000270262E370E080E090E00E94F300609161
:100B80002A028FE192E00E94410268EE73E080E069
:100B900090E00E94F30060E38FE192E00E942B035B
:100BA000CBE4D6E4CE010197F1F760E38FE192E068
:100BB0000E942B032197F1F760E38FE192E00E94FE
:100BC0002B0383E592E00197F1F760E28FE192E079
:100BD0000E942B0360912402606240E08FE192E06A
:100BE0000E94440384E08093250240E06CE08FE1A2
:100BF00092E00E94440340E061E08FE192E00E94B5
:100C00004403CBE3DFE1CE010197F1F782E080936B
:100C1000260240E066E08FE192E00E94440340E05B
:100C200062E08FE192E00E9444032197F1F788E0AF
:100C300080932A0260E08FE192E00E94410260E02E
:100C40008AE00E945B0340E150E066E271E08FE1E0
:100C500092E00E94270161E084E00E945B0348E18A
:100C600050E067E371E08FE192E00E942701C0E06D
:100C7000D0E040E068E18FE192E00E94440364EF3D
:100C800071E080E090E00E94F300209791F30E94D1
:100C90000000EFCFEE0FFF1F0590F491E02D0994B7
:100CA000F894FFCF00004000140054000000000042
:100CB0001202E5012803BB01DE01CB01BC010000EB
:100CC00000008E032701280354017777772E757073
:100CD0006969742E69706E2E6D7800546573742086
:100CE000646520646573706C617A616D69656E74AA
:040CF0006F20200051
:107800000C94343C0C94513C0C94513C0C94513CE1
:107810000C94513C0C94513C0C94513C0C94513CB4
:107820000C94513C0C94513C0C94513C0C94513CA4
:107830000C94513C0C94513C0C94513C0C94513C94
:107840000C94513C0C94513C0C94513C0C94513C84
:107850000C94513C0C94513C0C94513C0C94513C74
:107860000C94513C0C94513C11241FBECFEFD8E036
:10787000DEBFCDBF11E0A0E0B1E0ECE9FFE702C060
:1078800005900D92A230B107D9F712E0A2E0B1E065
:1078900001C01D92AD30B107E1F70E942D3D0C945F
:1078A000CC3F0C94003C982F959595959595959582
:1078B000905D8F708A307CF0282F295A8091C0000B
:1078C00085FFFCCF9093C6008091C00085FFFCCF60
:1078D0002093C6000895282F205DF0CF982F809127
:1078E000C00085FFFCCF9093C6000895EF92FF92F1
:1078F0000F931F93EE24FF2487018091C00087FD22
:1079000017C00894E11CF11C011D111D81E4E8164B
:1079100082E4F8068FE0080780E0180770F3E09132
:107920000401F091050109958091C00087FFE9CF1E
:107930008091C6001F910F91FF90EF9008950E94D3
:10794000763C982F8091C00085FFFCCF9093C600B5
:1079500091362CF490330CF09053892F089597555D
:10796000892F08951F930E949F3C182F0E949F3CCF
:107970001295107F810F1F9108951F93182F882350
:1079800021F00E94763C1150E1F71F9108951F935A
:10799000182F0E94763C803249F0809103018F5F5E
:1079A000809303018530C1F01F9108958091C0003C
:1079B00085FFFCCF84E18093C6008091C00085FFE5
:1079C000FCCF1093C6008091C00085FFFCCF80E102
:1079D0008093C6001F910895E0910401F091050184
:1079E00009951F9108950E94763C803241F0809164
:1079F00003018F5F80930301853081F008958091AA
:107A0000C00085FFFCCF84E18093C6008091C00058
:107A100085FFFCCF80E18093C6000895E0910401CA
:107A2000F09105010995089540E951E08823A1F0FE
:107A30002D9A28EE33E0FA013197F1F721503040CA
:107A4000D1F72D9828EE33E0FA013197F1F7215064
:107A50003040D1F7815061F708953F924F925F9285
:107A60006F927F928F929F92AF92BF92CF92DF924E
:107A7000EF92FF920F931F93CF93DF93000080E16B
:107A80008093C4001092C50088E18093C10086E015
:107A90008093C2005098589A259A81E00E94143D24
:107AA00024E1F22E9EE1E92E85E9D82E0FE0C02ECA
:107AB00010E1B12EAA24A394B1E49B2EA6E58A2E50
:107AC000F2E57F2EE0E26E2E79E4572E63E5462E36
:107AD00050E5352E0E94763C8033B1F18133B9F107
:107AE000803409F46FC0813409F476C0823409F41B
:107AF00085C0853409F488C0803531F1823521F1A3
:107B0000813511F1853509F485C0863509F48DC0BC
:107B1000843609F496C0843709F403C1853709F423
:107B200072C1863709F466C0809103018F5F80932C
:107B30000301853079F6E0910401F0910501099582
:107B40000E94763C803351F60E94F33CC3CF0E94E2
:107B5000763C803249F78091C00085FFFCCFF092DF
:107B6000C6008091C00085FFFCCF9092C600809136
:107B7000C00085FFFCCF8092C6008091C00085FFC9
:107B8000FCCF7092C6008091C00085FFFCCF609250
:107B9000C6008091C00085FFFCCF5092C600809146
:107BA000C00085FFFCCF4092C6008091C00085FFD9
:107BB000FCCF3092C6008091C00085FFFCCFB09210
:107BC000C60088CF0E94763C863808F4BDCF0E945C
:107BD000763C0E94F33C7ECF0E94763C803809F4CC
:107BE0009CC0813809F40BC1823809F43CC1883942
:107BF00009F48FC080E00E94C73C6CCF84E10E94F2
:107C0000BD3C0E94F33C66CF85E00E94BD3C0E94D3
:107C1000F33C60CF0E94763C809306010E94763C44
:107C2000809307010E94F33C55CF0E94763C80333D
:107C300009F41DC183E00E94BD3C80E00E94C73C66
:107C400049CF0E94763C809309020E94763C809343
:107C5000080280910C028E7F80930C020E94763C79
:107C6000853409F415C18091080290910902892B8D
:107C700089F000E010E00E94763CF801E85FFE4FDA
:107C800080830F5F1F4F80910802909109020817AF
:107C9000190788F30E94763C803209F045CF809125
:107CA0000C0280FF01C16091060170910701660F0F
:107CB000771F7093070160930601A0910802B091AD
:107CC00009021097C9F0E8E0F1E09B01AD014E0F09
:107CD0005F1FF999FECF32BD21BD819180BDFA9A17
:107CE000F99A2F5F3F4FE417F50799F76A0F7B1F4B
:107CF00070930701609306018091C00085FFFCCF5F
:107D0000F092C6008091C00085FFFCCFB092C60003
:107D1000E1CE83E00E94C73CDDCE82E00E94C73CFA
:107D2000D9CE0E94763C809309020E94763C8093D3
:107D300008028091060190910701880F991F909386
:107D40000701809306010E94763C853409F4A6C0A1
:107D500080910C028E7F80930C020E94763C8032D0
:107D600009F0B8CE8091C00085FFFCCFF092C6002C
:107D7000609108027091090261157105B9F140E046
:107D800050E080910C02A82FA170B82FB27011C0E2
:107D9000BB2309F45CC0E0910601F0910701319624
:107DA000F0930701E09306014F5F5F4F46175707B7
:107DB000E8F4AA2369F3F999FECF209106013091E6
:107DC000070132BD21BDF89A90B58091C00085FFB2
:107DD000FCCF9093C6002F5F3F4F30930701209355
:107DE00006014F5F5F4F4617570718F38091C00099
:107DF00085FDE5CE8091C00085FFF8CFE0CE81E023
:107E00000E94C73C67CE0E94763C803209F08CCE3F
:107E10008091C00085FFFCCFF092C6008091C00029
:107E200085FFFCCFE092C6008091C00085FFFCCFAB
:107E3000D092C6008091C00085FFFCCFC092C600E2
:107E40008091C00085FFFCCFB092C60043CEE09188
:107E50000601F091070194918091C00085FFFCCF4D
:107E60009093C6009CCF80E10E94C73C33CE0E9415
:107E7000763C0E94763C182F0E94763C112309F430
:107E800083C0113009F484C08FE00E94C73C22CE29
:107E900080910C02816080930C02E5CE80910C02EF
:107EA000816080930C0259CF809107018823880F4D
:107EB000880B8A2180930B02809106019091070123
:107EC000880F991F90930701809306018091080203
:107ED00080FF09C080910802909109020196909359
:107EE000090280930802F894F999FECF1127E091D6
:107EF0000601F0910701C8E0D1E08091080290915D
:107F00000902103091F40091570001700130D9F34B
:107F100003E000935700E89500915700017001308D
:107F2000D9F301E100935700E89509901990009169
:107F3000570001700130D9F301E000935700E89534
:107F40001395103498F011270091570001700130FB
:107F5000D9F305E000935700E895009157000170B0
:107F60000130D9F301E100935700E895329602976A
:107F700009F0C7CF103011F00296E5CF112480919F
:107F8000C00085FFB9CEBCCE8EE10E94C73CA2CD19
:0E7F900085E90E94C73C9ECDF894FFCF80008B
:00000001FF
