:100000000C9458000C9480000C9480000C94800098
:100010000C9480000C9480000C9480000C94800060
:100020000C9480000C9480000C9480000C94800050
:100030000C9480000C9480000C9480000C94800040
:100040000C9436050C9480000C9480000C94800075
:100050000C9480000C9480000C9480000C94800020
:100060000C9480050C9480000000000025002800FE
:100070002B00040404040404040402020202020229
:10008000030303030303010204081020408001025C
:1000900004081020010204081020000000080002DB
:1000A00001000003040700000000000000009F069C
:1000B00011241FBECFEFD8E0DEBFCDBF11E0A0E01E
:1000C000B1E0EEEEF4E102C005900D92A435B10767
:1000D000D9F722E0A4E5B1E001C01D92AF32B2072A
:1000E000E1F710E0C8E5D0E004C02197FE010E94CE
:1000F0006F0AC735D107C9F70E94BF060C94750A6D
:100100000C94000090E0FC01E656FF4F2491FC01A6
:10011000EA57FF4F3491FC01EE58FF4FE491EE2374
:10012000C9F0222339F0233001F1A8F4213019F16C
:10013000223029F1F0E0EE0FFF1FE859FF4FA591A3
:10014000B4918FB7F894EC91611126C030953E239D
:100150003C938FBF08952730A9F02830C9F0243090
:1001600049F7809180008F7D03C0809180008F7758
:1001700080938000DFCF84B58F7784BDDBCF84B5DB
:100180008F7DFBCF8091B0008F778093B000D2CF6E
:100190008091B0008F7DF9CF3E2BDACF8E508064F6
:1001A00080937C0080917A00806480937A008091B3
:1001B0007A0086FDFCCF80917800909179000895B7
:1001C0003FB7F8948091130290911402A091150208
:1001D000B091160226B5A89B05C02F3F19F00196D5
:1001E000A11DB11D3FBFBA2FA92F982F8827BC0191
:1001F000CD01620F711D811D911D42E0660F771FB9
:10020000881F991F4A95D1F708958F929F92AF92B8
:10021000BF92CF92DF92EF92FF924B015C010E945E
:10022000E0006B017C010E94E0006C197D098E09E1
:100230009F09683E734081059105A8F321E0821A69
:100240009108A108B10888EEC80E83E0D81EE11C11
:10025000F11C81149104A104B10429F7FF90EF90DF
:10026000DF90CF90BF90AF909F908F9008950895AA
:100270000895AF92BF92CF92DF92EF92FF920F93C9
:100280001F93CF93DF936C017B018B01040F151F2C
:10029000EB015E01AE18BF08C017D10759F0699194
:1002A000D601ED91FC910190F081E02DC6010995F8
:1002B000892B79F7C501DF91CF911F910F91FF90A5
:1002C000EF90DF90CF90BF90AF9008950895209168
:1002D0009501260F3327331F21323105ECF420918D
:1002E000DE01FC0190E080E0243069F082E00895B6
:1002F000A09195012191AC014B585E4FA40FB52FF1
:10030000B11D2C930196861798F380919501680F83
:100310006093950180E0089581E008951092DE01D8
:1003200081E08093DD011092B80161E082E10E94DA
:10033000820061E083E10E948200E9EBF0E08081CD
:100340008E7F808380818D7F808388E48093B80056
:1003500085E48093BC000895CF93DF9391E0909360
:1003600074018823B9F0C091B800D091BA0080918F
:10037000BC008A7B8093BC0060E082E10E94820026
:1003800060E083E10E9482000E948E01D093BA0057
:10039000C093B800DF91CF9108950895E0910D02C8
:1003A00080910C02E81730F4F0E0EC5AFE4F8081A7
:1003B00090E008958FEF9FEF089590910D02809146
:1003C0000C022FEF3FEF981748F4E92FF0E0EC5ABA
:1003D000FE4F208130E09F5F90930D02C901089588
:1003E00080910C0290910D02891B990B0895CF9278
:1003F000DF92EF92FF920F931F93CF93DF937C01D5
:10040000CB018A012091E401222389F0EB016B01E9
:10041000C40ED51ECC15DD0569F06991D701ED91AB
:10042000FC910190F081E02DC7010995F3CF642F75
:100430000E946701C801DF91CF911F910F91FF903A
:10044000EF90DF90CF900895CF93DF931F92CDB7B9
:10045000DEB769832091E4012223F9F020910A029A
:10046000203258F021E030E0FC013383228390E019
:1004700080E00F90DF91CF91089580910B02E82FDB
:10048000F0E0EB51FE4F998190838F5F80930B02D8
:1004900080930A0281E090E0ECCF61E0CE0101960A
:1004A0000E946701F7CFCF92DF92EF92FF920F93F6
:1004B0001F93CF93DF93FC01C48121E02093E401DB
:1004C000C093050210920B0210920A028385682BDA
:1004D00087E192E00E942402D0910A02D13208F012
:1004E00092C00E94E0006B017C018091DE018111CD
:1004F00065C082E08093DE0181E08093DD018FEFB3
:100500008093DC011092DB01D093DA01A5EEB1E01B
:10051000EAEBF1E080E0D81385C01092B901809138
:10052000B901CC0FC82BC093B9018091B8018130BB
:1005300009F07CC01092B8010E94E0006B017C01C0
:100540008091B9018093BB008091E0019091E1011D
:10055000A091E201B091E301892B8A2B8B2B99F0BA
:100560000E94E0000091E0011091E1012091E20180
:100570003091E3016C197D098E099F090617170751
:1005800028073907E0F18091BC0083FDD9CF85ECC5
:100590008093BC000E94E0006B017C018091DE0131
:1005A000823009F445C08091DC018F3F61F1809178
:1005B000DC01803241F18091DC0125C08091E001B5
:1005C0009091E101A091E201B091E301892B8A2B86
:1005D0008B2B09F48ACF0E94E0000091E00110917A
:1005E000E1012091E2013091E3016C197D098E094E
:1005F0009F09061717072807390708F076CF80915B
:10060000DF010E94AC0110920B0210920A021092BC
:10061000E401DF91CF911F910F91FF90EF90DF9058
:10062000CF9008959D9191938F5F75CF85EEB0CF58
:100630008091E0019091E101A091E201B091E3018C
:10064000892B8A2B8B2B09F4A9CF0E94E000009103
:10065000E0011091E1012091E2013091E3016C1978
:100660007D098E099F09061717072807390708F023
:1006700095CFC5CF90E080E00895FC010190002067
:10068000E9F73197AF01481B590BBC0183E292E0B7
:100690000C9439018F929F92AF92BF920F931F9348
:1006A000CF93DF93CDB7DEB7A1970FB6F894DEBF37
:1006B0000FBECDBF19A2423008F44AE08E010F5D93
:1006C0001F4F842E912CB12CA12CA50194010E94C6
:1006D0004D0AE62FB901CA01EA30F4F4E05DD80111
:1006E000EE938D01232B242B252B79F790E080E0CE
:1006F000109719F0CD010E943D03A1960FB6F89412
:10070000DEBF0FBECDBFDF91CF911F910F91BF9084
:10071000AF909F908F900895E95CE1CF0F931F9366
:10072000CF938C01C62F0E9453026C2F6460C801C6
:100730000E9453026C2F6B7FC8010E94530283EC0E
:1007400090E00197F1F7CF911F910F9108950F93CA
:100750001F93CF93DF938C01D62FC42F607F642B20
:100760000E948E0380E1D89FB00111246C2BC80138
:10077000DF91CF911F910F910C948E0341E00E9465
:10078000A70381E090E00895CF92DF92EF92FF926D
:100790006C01990FEE08FF08F7FE16C041E06DE20C
:1007A00083E292E00E94A70366277727CB016C19AA
:1007B0007D098E099F094AE00E944A030196FF9035
:1007C000EF90DF90CF9008954AE0C701B601FF9007
:1007D000EF90DF90CF900C944A03CF93DF93CDB787
:1007E000DEB728970FB6F894DEBF0FBECDBF98E0F6
:1007F000E0E0F1E0DE01119601900D929A95E1F7AB
:1008000090912B02961708F46FEF262F30E0220FFD
:10081000331F41E050E04C0F5D1F240F351FF901DD
:100820006081680F606840E083E292E028960FB62E
:10083000F894DEBF0FBECDBFDF91CF910C94A7031C
:100840004F925F926F927F928F929F92AF92BF92E0
:10085000CF92DF92EF92FF920F931F93CF936B0192
:100860007C01742EAC019B010E94480A882399F0F8
:1008700086E291E0CF911F910F91FF90EF90DF9072
:10088000CF90BF90AF909F908F907F906F905F9030
:100890004F900C943D0346015701E894B7F82FEFB1
:1008A0003FEF4FE75FE7C501B4010E94480A81119D
:1008B0000DC02FEF3FEF4FE75FE7C501B4010E9486
:1008C0007E0818161CF48AE291E0D4CF2FEF3FEF98
:1008D0004FE75FE4C701B6010E94D60918161CF461
:1008E0008EE291E0C7CF2FEF3FEF4FE75FECC701FC
:1008F000B6010E947E0887FDF3CF20E030E0A90119
:10090000C701B6010E947E0810E000E087FF0CC01E
:1009100041E06DE283E292E00E94A703F7FAF094CF
:10092000F7F8F09401E010E0C0E060E070E080E0F3
:100930009FE37C1641F020E030E040E251E40E9469
:100940008308CF5FF6CFA70196010E9412084B01E2
:100950005C010E94F5082B013C014AE00E944A0319
:10096000080F191FCC23C9F1C301B2010E94240949
:100970009B01AC01C501B4010E9411084B015C014F
:1009800041E06EE283E292E00E94A7030F5F1F4FF7
:10099000C15018F120E030E040E251E4C501B4015B
:1009A0000E94DB092B013C010E94F5084B01B12C90
:1009B000A12C4AE0C501B4010E944A03080F191F87
:1009C000C501B4010E9424099B01AC01C301B2011D
:1009D0000E9411084B015C01DBCFC801CF911F9130
:1009E0000F91FF90EF90DF90CF90BF90AF909F90CE
:1009F0008F907F906F905F904F90089585ED8093DA
:100A0000BC008091E0019091E101A091E201B091E0
:100A1000E3010796A11DB11D23E0B695A795979513
:100A200087952A95D1F72091BC0024FD03C0109230
:100A3000DE0108954091E0015091E1016091E201F1
:100A40007091E301452B462B472B69F30097A105D5
:100A5000B10541F025E32A95F1F700000197A109BE
:100A6000B109E1CF8091DF010C94AC011F920F928C
:100A70000FB60F9211242F933F938F939F93AF93B1
:100A8000BF9380910F0290911002A0911102B0913A
:100A9000120230910E0223E0230F2D3758F50196F4
:100AA000A11DB11D20930E0280930F02909310029E
:100AB000A0931102B093120280911302909114023C
:100AC000A0911502B09116020196A11DB11D80934F
:100AD000130290931402A0931502B0931602BF91D3
:100AE000AF919F918F913F912F910F900FBE0F90DB
:100AF0001F90189526E8230F0296A11DB11DD2CF95
:100B00001F920F920FB60F9211242F933F934F9382
:100B10005F936F937F938F939F93AF93BF93EF9365
:100B2000FF938091B900887F803609F44AC0F0F5C0
:100B3000883209F4A7C018F5803109F49BC0B8F4D5
:100B4000882309F4F9C0883009F494C0FF91EF912B
:100B5000BF91AF919F918F917F916F915F914F91D5
:100B60003F912F910F900FBE0F901F9018958831D5
:100B700009F488C0803251F78093DC0114C08034BE
:100B800009F49DC040F48033B9F38833F9F68093BB
:100B9000DC0185ECB0C0803509F485C0883509F4E6
:100BA00096C0883499F60E94FE04D0CF883909F4A3
:100BB0008CC038F5883729F050F4883611F080372A
:100BC00029F683E08093DE011092B70157C0883880
:100BD00009F47BC0803919F0803809F0B7CF8091D3
:100BE000B701803208F071C0E091B70181E08E0F4B
:100BF0008093B7018091BB00F0E0E956FE4F8083FF
:100C00003DC0803B39F0E0F4803A09F479C0883A7D
:100C100009F09CCF84E08093DE011092960110923F
:100C20009501E0910802F0910902099580919501E2
:100C300081110FC081E0809395011092750109C068
:100C4000803C09F4A6CF883C09F4A3CF883B09F087
:100C50007DCFE091960181E08E0F80939601F0E0C8
:100C6000EB58FE4F80818093BB009091960180915C
:100C7000950129C08091B9018093BB0085EC8093D8
:100C8000BC0064CF9091DB018091DA01981758F590
:100C9000E091DB0181E08E0F8093DB01F0E0E65410
:100CA000FE4F8081E9CFE091DB0181E08E0F8093E0
:100CB000DB018091BB00F0E0E654FE4F8083909111
:100CC000DB018091DA019817C8F285E8D8CFE0916E
:100CD000DB0181E08E0F8093DB018091BB00F0E0AF
:100CE000E654FE4F80838091DD0181115CCF81E06D
:100CF0008093B80184EA8093BC001092DE0126CF75
:100D000085EC8093BC001092DE018091B7018032A7
:100D100030F4E091B701F0E0E956FE4F10826091A7
:100D2000B70170E0E0910602F091070287E991E0D7
:100D300009951092B7010ACF1092DC0134CFE7E198
:100D4000F2E01382128288EE93E0A0E0B0E08483A8
:100D50009583A683B7838CE091E091838083E3E25F
:100D6000F2E0138212828EE191E0918380838FE31F
:100D7000848380E1818782E0828713860895789456
:100D800084B5826084BD84B5816084BD85B5826090
:100D900085BD85B5816085BD80916E008160809341
:100DA0006E001092810080918100826080938100AA
:100DB00080918100816080938100809180008160BA
:100DC000809380008091B10084608093B100809115
:100DD000B00081608093B00080917A00846080933D
:100DE0007A0080917A00826080937A0080917A0004
:100DF000816080937A0080917A00806880937A0085
:100E00001092C10010920D0210920C0210920B026F
:100E100010920A020E948E0187E391E090930902EA
:100E20008093080288E391E0909307028093060282
:100E30001092280280912D02823018F098E0909351
:100E4000280280932B0262E370E080E090E00E9431
:100E5000050160912E0283E292E00E94530268EE47
:100E600073E080E090E00E94050160E383E292E09D
:100E70000E948E03CBE4D6E4CE010197F1F760E344
:100E800083E292E00E948E032197F1F760E383E210
:100E900092E00E948E0383E592E00197F1F760E211
:100EA00083E292E00E948E0360912802606240E03B
:100EB00083E292E00E94A70384E08093290240E04D
:100EC0006CE083E292E00E94A70340E061E083E2ED
:100ED00092E00E94A703CBE3DFE1CE010197F1F797
:100EE00082E080932A0240E066E083E292E00E9482
:100EF000A70340E062E083E292E00E94A70321970B
:100F0000F1F788E080932E0260E083E292E00E9495
:100F1000530288EEC82E83E0D82EE12CF12C90E00D
:100F2000892E90E0992E8EE00E94CE005C018FE029
:100F30000E94CE008C0180E10E94CE00EC018FB7B0
:100F4000F89440900F02509010026090110270903F
:100F500012028FBF60E080E00E94ED0382E391E027
:100F60000E943D03C5010E94C40387E391E00E94F3
:100F70003D0360E08AE00E94ED038BE391E00E9474
:100F80003D03B801110F880B990B0E9426092AE036
:100F900038E240EA5BE30E94DB0941E00E94200462
:100FA0008EE391E00E943D0361E080E00E94ED034A
:100FB00082E491E00E943D03BE01DD0F880B990B96
:100FC0000E9426092DE032E348EC5DE30E94DB0934
:100FD00041E00E94200485E491E00E943D0361E02D
:100FE0008AE00E94ED038CE491E00E943D03C3017E
:100FF000B201A70196010E944D0AC9010E94C403D3
:101000008FE491E00E943D0368EC70E080E090E0A6
:101010000E9405018114910409F485CF0E9400000B
:1010200082CF5058BB27AA270E9429080C949C09FC
:101030000E948E0938F00E94950920F039F49F3FF4
:1010400019F426F40C948B090EF4E095E7FB0C944C
:101050008509E92F0E94AD0958F3BA176207730793
:101060008407950720F079F4A6F50C94CF090EF4C7
:10107000E0950B2EBA2FA02D0B01B90190010C01A8
:10108000CA01A0011124FF27591B99F0593F50F4C0
:10109000503E68F11A16F040A22F232F342F442718
:1010A000585FF3CF469537952795A795F040539510
:1010B000C9F77EF41F16BA0B620B730B840BBAF0E0
:1010C0009150A1F0FF0FBB1F661F771F881FC2F74B
:1010D0000EC0BA0F621F731F841F48F4879577955F
:1010E0006795B795F7959E3F08F0B0CF9395880F19
:1010F00008F09927EE0F9795879508950E9461094A
:1011000008F481E008950E9497080C949C090E94BD
:10111000950958F00E948E0940F029F45F3F29F0AC
:101120000C94850951110C94D0090C948B090E94E0
:10113000AD0968F39923B1F3552391F3951B550B32
:10114000BB27AA2762177307840738F09F5F5F4F9A
:10115000220F331F441FAA1FA9F335D00E2E3AF0D9
:10116000E0E832D091505040E695001CCAF72BD0F1
:10117000FE2F29D0660F771F881FBB1F2617370742
:101180004807AB07B0E809F0BB0B802DBF01FF2774
:1011900093585F4F3AF09E3F510578F00C948509C3
:1011A0000C94D0095F3FE4F3983ED4F3869577958D
:1011B0006795B795F7959F5FC9F7880F911D96952D
:1011C000879597F90895E1E0660F771F881FBB1F89
:1011D000621773078407BA0720F0621B730B840B36
:1011E000BA0BEE1F88F7E09508950E94B50988F0C4
:1011F0009F5798F0B92F9927B751B0F0E1F0660FDB
:10120000771F881F991F1AF0BA95C9F714C0B1301B
:1012100091F00E94CF09B1E008950C94CF09672F97
:10122000782F8827B85F39F0B93FCCF3869577954A
:101230006795B395D9F73EF4909580957095619533
:101240007F4F8F4F9F4F0895E89409C097FB3EF45E
:1012500090958095709561957F4F8F4F9F4F992303
:10126000A9F0F92F96E9BB279395F6958795779581
:101270006795B795F111F8CFFAF4BB0F11F460FF41
:101280001BC06F5F7F4F8F4F9F4F16C0882311F099
:1012900096E911C0772321F09EE8872F762F05C0AD
:1012A000662371F096E8862F70E060E02AF09A9548
:1012B000660F771F881FDAF7880F9695879597F93D
:1012C0000895990F0008550FAA0BE0E8FEEF1616D7
:1012D0001706E807F907C0F012161306E407F5072A
:1012E00098F0621B730B840B950B39F40A2661F09E
:1012F000232B242B252B21F408950A2609F4A14041
:10130000A6958FEF811D811D089597F99F6780E84D
:1013100070E060E008959FEF80EC089500240A9447
:101320001616170618060906089500240A941216C0
:101330001306140605060895092E0394000C11F4F3
:10134000882352F0BB0F40F4BF2B11F460FF04C0A0
:101350006F5F7F4F8F4F9F4F089557FD9058440FF9
:10136000551F59F05F3F71F04795880F97FB991F04
:1013700061F09F3F79F087950895121613061406C1
:10138000551FF2CF4695F1DF08C01616170618064E
:10139000991FF1CF86957105610508940895E89429
:1013A000BB2766277727CB0197F908950E9461092B
:1013B00008F48FEF08950E94EE090C949C090E9496
:1013C0008E0938F00E94950920F0952311F00C94B5
:1013D00085090C948B0911240C94D0090E94AD0945
:1013E00070F3959FC1F3950F50E0551F629FF00178
:1013F000729FBB27F00DB11D639FAA27F00DB11D91
:10140000AA1F649F6627B00DA11D661F829F222719
:10141000B00DA11D621F739FB00DA11D621F839FA0
:10142000A00D611D221F749F3327A00D611D231F76
:10143000849F600D211D822F762F6A2F11249F57C4
:1014400050409AF0F1F088234AF0EE0FFF1FBB1FC7
:10145000661F771F881F91505040A9F79E3F510586
:1014600080F00C9485090C94D0095F3FE4F3983E1A
:10147000D4F3869577956795B795F795E7959F5F30
:10148000C1F7FE2B880F911D9695879597F90895C2
:101490000E946109880B990B0895A1E21A2EAA1BDC
:1014A000BB1BFD010DC0AA1FBB1FEE1FFF1FA21714
:1014B000B307E407F50720F0A21BB30BE40BF50B11
:1014C000661F771F881F991F1A9469F7609570959A
:1014D000809590959B01AC01BD01CF010895EE0F61
:0E14E000FF1F0590F491E02D0994F894FFCFC2
:1014EE000000400014005400000000002402F70128
:1014FE003A03CD01F001DD01CE0100000000BE0374
:10150E0039013A0366016E616E00696E66006F7690
:10151E0066004144433A0020202000563A005620EF
:10152E002000543A0033333743202000743A002011
:04153E0073202000F6
:00000001FF
