:100000000C945D000C9485000C9485000C94850084
:100010000C9485000C9485000C9485000C9485004C
:100020000C9485000C9485000C9485000C9485003C
:100030000C9485000C9485000C9485000C9485002C
:100040000C948C020C9485000C9485000C94850013
:100050000C9485000C9485000C9485000C9485000C
:100060000C9485000C94850000000008000201003B
:100070000003040700000000000000000000000072
:10008000250028002B0000000000240027002A0083
:10009000040404040404040402020202020203032E
:1000A0000303030301020408102040800102040836
:1000B0001020010204081020780311241FBECFEF86
:1000C000D8E0DEBFCDBF11E0A0E0B1E0ECE3F7E0A7
:1000D00002C005900D92A434B107D9F721E0A4E441
:1000E000B1E001C01D92A536B207E1F710E0CDE501
:1000F000D0E004C02197FE010E949603CC35D107C1
:10010000C9F70E94D6020C949C030C94000090E066
:10011000FC01EC55FF4F249180579F4FFC018491C7
:10012000882399F090E0880F991FFC01EA57FF4F50
:10013000A591B491FC01E458FF4F859194918FB73C
:10014000F894EC91E22BEC938FBF089590E0FC01C2
:10015000E859FF4F2491FC01EC55FF4F3491FC010D
:10016000E057FF4FE491EE23C9F0222339F023300A
:1001700001F1A8F4213019F1223029F1F0E0EE0F5D
:10018000FF1FE458FF4FA591B4918FB7F894EC91FD
:10019000611126C030953E233C938FBF08952730D0
:1001A000A9F02830C9F0243049F7809180008F7D74
:1001B00003C0809180008F7780938000DFCF84B56B
:1001C0008F7784BDDBCF84B58F7DFBCF8091B0006E
:1001D0008F778093B000D2CF8091B0008F7DF9CF20
:1001E0003E2BDACF3FB7F8948091490190914A01B4
:1001F000A0914B01B0914C0126B5A89B05C02F3FA3
:1002000019F00196A11DB11D3FBFBA2FA92F982F3C
:100210008827BC01CD01620F711D811D911D42E037
:10022000660F771F881F991F4A95D1F70895AF92DF
:10023000BF92CF92DF92EF92FF920F931F93CF93D3
:10024000DF936C017B018B01040F151FEB015E0135
:10025000AE18BF08C017D10759F06991D601ED91CA
:10026000FC910190F081E02DC6010995892B79F769
:10027000C501DF91CF911F910F91FF90EF90DF901B
:10028000CF90BF90AF900895089590E080E00895DA
:10029000CF93DF93EC0160E08E810E94A60061E0C5
:1002A0008E810E94A60060E08E810E94A6008BE8ED
:1002B00091E00197F1F7DF91CF910895CF92DF920E
:1002C000EF92FF920F931F93CF93DF936C017C010A
:1002D00087E0E80EF11CD0E0C0E0062F10E0B80186
:1002E0000C2E02C0759567950A94E2F76170F701CC
:1002F00081917F010E94A6002196C430D10579F733
:10030000C601DF91CF911F910F91FF90EF90DF9089
:10031000CF900C944801CF92DF92EF92FF920F930F
:100320001F93CF93DF93EC01F62E642F8C810E94F4
:10033000A6008D818F3F19F060E00E94A6000F2D6E
:1003400010E08F8584FF25C06E0187E0C80ED11CA8
:10035000F12CE12CB8010E2C02C0759567950A941A
:10036000E2F76170F60181916F010E94A600FFEF34
:10037000EF1AFF0A88E0E816F10461F7CE01DF9179
:10038000CF911F910F91FF90EF90DF90CF900C9441
:100390004801B80184E0759567958A95E1F7CE012B
:1003A0000E945E016F2DCE01DF91CF911F910F91C1
:1003B000FF90EF90DF90CF900C945E0140E0682FAB
:1003C0008DE491E00C948B01CF93DF93823029F47C
:1003D00090915C01986090935C0180936001109211
:1003E000610180E48093620180E18093630180E594
:1003F00080936401809151010E9487008091520195
:100400008F3F11F00E948700809153010E94870066
:10041000CDE4D1E09E012D54314080915C0184FDFA
:100420000AC084E090E02196281739073CF48E81B9
:100430000E948700EFCF88E090E0F5CF8BE39DE04E
:100440000197F1F760E0809151010E94A60060E001
:10045000809153010E94A600809152018F3F19F0B4
:1004600060E00E94A60080915C0184FD39C063E0D9
:100470008DE491E00E945E01CBE4D6E4CE010197C9
:10048000F1F763E08DE491E00E945E012197F1F7BE
:1004900063E08DE491E00E945E0183E592E00197C4
:1004A000F1F762E08DE491E00E945E0180915C01D1
:1004B00080620E94DE0184E080935D018CE00E94F6
:1004C000DE0181E00E94DE018BE39FE10197F1F7FD
:1004D00082E080935E0186E0DF91CF910C94DE0193
:1004E00080620E94DE018BE496E40197F1F780912F
:1004F0005C0180620E94DE0183E592E00197F1F7E2
:1005000080915C0180620E94DE01D0CF41E00E94B8
:100510008B0181E090E008951F920F920FB60F9229
:1005200011242F933F938F939F93AF93BF93809109
:10053000450190914601A0914701B0914801309149
:10054000440123E0230F2D3758F50196A11DB11D5D
:10055000209344018093450190934601A093470165
:10056000B09348018091490190914A01A0914B01BB
:10057000B0914C010196A11DB11D8093490190934A
:100580004A01A0934B01B0934C01BF91AF919F9151
:100590008F913F912F910F900FBE0F901F90189544
:1005A00026E8230F0296A11DB11DD2CF789484B501
:1005B000826084BD84B5816084BD85B5826085BD5F
:1005C00085B5816085BD80916E00816080936E00ED
:1005D00010928100809181008260809381008091DF
:1005E0008100816080938100809180008160809390
:1005F00080008091B10084608093B1008091B00050
:1006000081608093B00080917A00846080937A004A
:1006100080917A00826080937A0080917A00816074
:1006200080937A0080917A00806880937A0010929B
:10063000C10082E00E94E401E1E08091600181114B
:10064000E0E0E195F0E0E35BFE4F8489865F80683F
:100650000E94DE0140E150E06CE071E08DE491E049
:100660000E941701E0916001E23008F03FC0E150C4
:10067000F0E0E35BFE4F84898B5F80680E94DE01BF
:1006800046E250E06DE171E08DE491E00E941701D7
:10069000C0E0D0E088E10E94DE010E94F2006B0120
:1006A0007C018AEF882E912CA12CB12C0E94F200A3
:1006B0006C197D098E099F09683E7340810591057B
:1006C000A8F321E0821A9108A108B10888EEC80EAB
:1006D00083E0D81EE11CF11C81149104A104B10433
:1006E00029F72097B9F20E940000D4CFE1E0C0CFF3
:1006F000EDE4F1E01382128284E091E09183808343
:1007000088E084838FEF858389E0868384E0878314
:1007100085E0808786E0818787E08287138614865C
:1007200015861686178681E00C94E401EE0FFF1FF4
:0C0730000590F491E02D0994F894FFCF9F
:10073C000000000086021701450144017777772EEF
:10074C0075706969742E69706E2E6D7800547574AD
:10075C006F7269616C204C43442C20546573742077
:10076C00646520646573706C617A616D69656E7423
:04077C006F202000CA
:00000001FF
