:100000000C945C000C9479000C9479000C947900A9
:100010000C9479000C9479000C9479000C9479007C
:100020000C9479000C9479000C9479000C9479006C
:100030000C9479000C9479000C9479000C9479005C
:100040000C94EC000C9479000C9479000C947900D9
:100050000C9479000C9479000C9479000C9479003C
:100060000C9479000C947900000000002400270013
:100070002A0000000000250028002B0004040404CE
:100080000404040402020202020203030303030342
:10009000010204081020408001020408102001021F
:1000A00004081020000000080002010000030407FB
:1000B000000000000000000011241FBECFEFD8E0B8
:1000C000DEBFCDBF11E0A0E0B1E0EAEFF5E002C095
:1000D00005900D92A431B107D9F721E0A4E1B1E078
:1000E00001C01D92A532B207E1F70E9436010C94BF
:1000F000FB020C94000090E0FC01EC55FF4F2491B2
:10010000FC01E057FF4F3491FC01E458FF4FE491AC
:10011000EE23C9F0222339F0233001F1A8F4213075
:1001200019F1223029F1F0E0EE0FFF1FEE58FF4FDA
:10013000A591B4918FB7F894EC91611126C03095D8
:100140003E233C938FBF08952730A9F02830C9F093
:10015000243049F7809180008F7D03C0809180001A
:100160008F7780938000DFCF84B58F7784BDDBCF1E
:1001700084B58F7DFBCF8091B0008F778093B000E6
:10018000D2CF8091B0008F7DF9CF3E2BDACF3FB731
:10019000F8948091210190912201A0912301B091C6
:1001A000240126B5A89B05C02F3F19F00196A11D7B
:1001B000B11D3FBFBA2FA92F982F8827BC01CD01B1
:1001C000620F711D811D911D42E0660F771F881F10
:1001D000991F4A95D1F708951F920F920FB60F926B
:1001E00011242F933F938F939F93AF93BF9380914D
:1001F0001D0190911E01A0911F01B091200130912D
:100200001C0123E0230F2D3758F50196A11DB11DC8
:1002100020931C0180931D0190931E01A0931F0148
:10022000B09320018091210190912201A09123019E
:10023000B09124010196A11DB11D809321019093DD
:100240002201A0932301B0932401BF91AF919F910C
:100250008F913F912F910F900FBE0F901F90189587
:1002600026E8230F0296A11DB11DD2CFCF93DF93B5
:10027000CDB7DEB764970FB6F894DEBF0FBECDBF23
:10028000789484B5826084BD84B5816084BD85B571
:10029000826085BD85B5816085BD80916E0081607D
:1002A00080936E0010928100809181008260809323
:1002B0008100809181008160809381008091800025
:1002C0008160809380008091B10084608093B10050
:1002D0008091B00081608093B00080917A0084604A
:1002E00080937A0080917A00826080937A00809176
:1002F0007A00816080937A0080917A008068809390
:100300007A001092C10022E030E0F901E057FF4F7F
:100310004491F901E458FF4F8491882399F090E0CB
:10032000880F991FFC01E859FF4FA591B491FC017A
:10033000EE58FF4F859194918FB7F894EC91E42B90
:10034000EC938FBF2F5F3F4F2D303105F1F61092A8
:1003500018011092190110921A0110921B010AE063
:10036000C0901801D0901901E0901A01F0901B0183
:100370002FE0C21627E2D206E104F1040CF0F2C02D
:1003800082E390E0A0E0B0E0809314019093150127
:10039000A0931601B0931701C701B60128EE33E010
:1003A00040E050E00E94BA021901A8EEB3E02A9F93
:1003B00040012B9F900C3A9F900C1124C401092CF2
:1003C000000CAA0BBB0B26013701481A590A6A0A0E
:1003D0007B0AC301B20124E630E040E050E00E9415
:1003E000BA02388B2F87B4E6B29F5001B39FB00C8E
:1003F0001124C5010B2C000CAA0BBB0BA30192010D
:10040000281B390B4A0B5B0BCA01B9012AE030E00B
:1004100040E050E00E94BA023A8B298BC60188194D
:1004200099098A199B09029FB001039F700D11243D
:10043000AC01461B570B5C8B4B8B80911401909148
:100440001501A0911601B09117018B879C87AD878C
:10045000BE87181619061A061B060CF075C03A82DC
:100460002982AF85B889BC83AB8329893A893E83C9
:100470002D834B895C8958874F83CE0101969A87DB
:10048000898719E0A985BA85ED91FD91BA87A98779
:10049000EE0FFF1FE050FF4F8080918022E0A22EE0
:1004A000B12CC5010297B40102C0759567958A9574
:1004B000E2F761708A2D0E947B00BFEFAB1ABB0A86
:1004C00029E0A216B10469F761E0812F0E947B0048
:1004D0000E94C7002B013C0185E0882E912CA12CA5
:1004E000B12C0E94C7006419750986099709683EF6
:1004F000734081059105A8F331E0831A9108A108A2
:10050000B10848EE440E43E0541E611C711C811476
:100510009104A104B10429F760E0812F0E947B00BF
:100520001F5F1D3009F0AECF8B859C85AD85BE85E4
:100530000197A109B1098093140190931501A0932B
:100540001601B093170179CF8FEFC81AD80AE80ABD
:10055000F80AC0921801D0921901E0921A01F092A3
:100560001B01FECEA0E0B0E0AB2B09F4F0CE0E9460
:100570000000EDCE052E97FB1EF400940E94D102E0
:1005800057FD07D00E94D90207FC03D04EF40C940B
:10059000D10250954095309521953F4F4F4F5F4F79
:1005A000089590958095709561957F4F8F4F9F4FDF
:1005B0000895A1E21A2EAA1BBB1BFD010DC0AA1FA4
:1005C000BB1FEE1FFF1FA217B307E407F50720F0BC
:1005D000A21BB30BE40BF50B661F771F881F991F37
:1005E0001A9469F760957095809590959B01AC0180
:0A05F000BD01CF010895F894FFCF7C
:1005FA003F0006005B004F0066006D007D000700AB
:04060A007F00670006
:00000001FF
