:020000040000FA
:100000000C94F3020C941B030C941B030C941B0321
:100010000C941B030C941B030C941B030C941B03E8
:100020000C941B030C941B030C941B030C941B03D8
:100030000C941B030C941B030C941B030C941B03C8
:100040000C942E080C941B030C949E080C947808B6
:100050000C941B030C941B030C941B030C941B03A8
:100060000C941B030C941B034602000000FF0800C5
:10007000053E5B4F5B3E053E6B4F6B3E051C3E7C79
:100080003E1C05183C7E3C18051C577D571C051C62
:100090005E7F5E1C0400183C1805FFE7C3E7FF0401
:1000A0000018241805FFE7DBE7FF0530483A060E85
:1000B00005262979292605407F05050705407F0586
:1000C000253F055A3CE73C5A057F3E1C1C080508A5
:1000D0001C1C3E7F0514227F221405FFFFFFFFFF3B
:1000E00005F0F0F0F0F003FFFFFF05000000FFFF58
:1000F000050F0F0F0F0F0508047E04080510207E62
:1001000020100508082A1C0805081C2A080805AA4A
:10011000005500AA05AA55AA55AA0530383E383020
:1001200005060E3E0E06020000015F0307000705EC
:10013000147F147F1405444AFF4A32056313086490
:10014000630536494936480107033E4141034141B1
:100150003E05082A1C2A080508083E08080260E037
:100160000408080808026060056010080403053EE2
:100170005149453E0304027F0571494949460541FD
:1001800049494936050F0808087F054F4949493153
:10019000053E4949493005030101017F05364949BA
:1001A000493605064949493E026C6C026CEC03086D
:1001B0001422041414141403221408050159090903
:1001C00006053E415D594E057E0909097E057F49B8
:1001D000494936053E41414141057F4141413E0586
:1001E0007F49494941057F09090901053E414149C6
:1001F00079057F0808087F03417F4105304141416F
:100200003F057F08142241057F40404040057F02A2
:100210000C027F057F0408107F053E4141413E05E9
:100220007F09090906053E4141617E057F091929BB
:10023000460546494949310501017F0101053F4015
:1002400040403F051F2040201F053F4038403F05EC
:1002500063140814630503047804030561514945D8
:1002600043037F41410503040810600341417F05BA
:100270000402010204048080808003010204043827
:1002800044447C047F44443804384444440438449F
:10029000447F043854545804047E05010418A4A46F
:1002A0007C047F040478017D0384857C047F10280E
:1002B00044017F057C04780478047C0404780438C5
:1002C00044443804FC24241804182424FC047C042A
:1002D0000408045854543403047F04043C40407C14
:1002E000041C20407C053C4030403C046C10106CE9
:1002F000041CA0A07C046454544C04083641410101
:100300007F04414136080402010201057F41414159
:100310007F053E55555541053844443844057C2AEF
:100320002A3E14057E0202060605027E027E0205B2
:100330006355494163053844443C0405407E201E12
:10034000200506027E0202086313086463006060F1
:10035000052A2A2A2A2A03514A4403444A510500FD
:1003600000FF010303E080FF053612362436030246
:100370000502021818021010053040FF0101041F89
:1003800001011E000000000901017F017F020C0233
:100390007F0000000000000100017D0418247E247D
:1003A00004447E454105221C141C2205012A7C2A96
:1003B000010177044E55553903020002077E81BDC5
:1003C000A5A5817E0326292F0508142A14220408D6
:1003D00008081803080808077E81BD95A9817E05D5
:1003E00001010101010302050203242E2403191552
:1003F000120315150A02020104F8204078050609C7
:100400007F017F021818040080A0C003121F100390
:100410002629260522142A140808402F1008041E35
:10042000117C08402F10080462554C0915553F10E7
:1004300008041E117C053048484D400578151614F7
:1004400078057814161578057A1514157A05781636
:10045000151679057815141578057814151478078C
:100460007E09097F494941059EA1612121057C54EE
:10047000554644057C54564544057E55544546052D
:100480007C5554454403457E4403447E4503467DE4
:100490004603457C4505087F49413E057C0A1122FB
:1004A0007D053844454638053844464538053A45C3
:1004B00044453A05384645463905384544453805EA
:1004C0002214081422057C625A463E053C404142F3
:1004D0003C053C4042413C053C4241423C053C41DC
:1004E00040413C0502047A0502043F12120C057ECD
:1004F00049494E30043845467C043844467D04382A
:1005000046457E043A45467D043845447D04304ADC
:100510004D7A0720545438545458049CA262220443
:10052000385556580438545659043856555A0438D4
:1005300055545902017A027A0103027902030278C2
:100540000204304B4B3C047A090A710430494A30AA
:100550000430484A3104304A49320432494A3104AD
:10056000394444390508082A08080438544C38042A
:10057000384142780438404279043842417A043A9A
:1005800040407A0418A0A27904FC282810041AA07C
:10059000A07A000000080002010000030407000028
:1005A00000000000000000000000250028002B00D3
:1005B00000000000240027002A00040404040404AE
:1005C0000404020202020202030303030303010202
:1005D00004081020408001020408102001020408D1
:1005E0001020D008520C11241FBECFEFD8E0DEBF80
:1005F000CDBF21E0A4E2B1E001C01D92AF3FB20740
:10060000E1F711E0A0E0B1E0E0E8FDE102C0059013
:100610000D92A432B107D9F712E0C2EFD2E004C0C4
:100620002197FE010E94B40CC13FD107C9F70E9477
:1006300031090C94B30E0C94000090E0FC01E253DD
:10064000FA4F249186549A4FFC018491882399F0A3
:1006500090E0880F991FFC01E055FA4FA591B491E5
:10066000FC01EA55FA4F859194918FB7F894EC917B
:10067000E22BEC938FBF089590E0FC01EE56FA4F09
:100680002491FC01E253FA4F3491FC01E654FA4FF5
:10069000E491EE23C9F0222339F0233001F1A8F4CC
:1006A000213019F1223029F1F0E0EE0FFF1FEA5559
:1006B000FA4FA591B4918FB7F894EC91611126C0CF
:1006C00030953E233C938FBF08952730A9F0283002
:1006D000C9F0243049F7809180008F7D03C080915C
:1006E00080008F7780938000DFCF84B58F7784BDC3
:1006F000DBCF84B58F7DFBCF8091B0008F77809367
:10070000B000D2CF8091B0008F7DF9CF3E2BDACFF1
:100710003FB7F89480912A0190912B01A0912C0170
:10072000B0912D0126B5A89B05C02F3F19F0019669
:10073000A11DB11D3FBFBA2FA92F982F8827BC013B
:10074000CD01620F711D811D911D42E0660F771F63
:10075000881F991F4A95D1F70895AF92BF92CF9203
:10076000DF92EF92FF920F931F93CF93DF936C0171
:100770007B018B01040F151FEB015E01AE18BF0852
:10078000C017D10759F06991D601ED91FC91019004
:10079000F081E02DC6010995892B79F7C501DF911C
:1007A000CF911F910F91FF90EF90DF90CF90BF906E
:1007B000AF900895FC01538D448D252F30E0842F98
:1007C00090E0821B930B541710F0CF960895019779
:1007D0000895FC01918D828D981761F0A28DAE0F66
:1007E000BF2FB11D5D968C91928D9F5F9F73928FED
:1007F00090E008958FEF9FEF0895FC01918D828D19
:10080000981731F0828DE80FF11D858D90E00895E5
:100810008FEF9FEF0895FC01918D228D892F90E03D
:10082000805C9F4F821B91098F739927089580E305
:1008300091E00E940B0421E0892B09F420E0822F33
:10084000089580E090E0892B29F00E94170481111F
:100850000C9400000895FC01A48DA80FB92FB11DC0
:10086000A35ABF4F2C91848D90E001968F739927E6
:10087000848FA689B7892C93A089B1898C918370C4
:1008800080648C93938D848D981306C00288F389BD
:10089000E02D80818F7D80830895EF92FF920F93EA
:1008A0001F93CF93DF93EC0181E0888F9B8D8C8D1C
:1008B00098131AC0E889F989808185FF15C09FB710
:1008C000F894EE89FF896083E889F98980818370D3
:1008D000806480839FBF81E090E0DF91CF911F9182
:1008E0000F91FF90EF900895F62E0B8D10E00F5FA3
:1008F0001F4F0F731127E02E8C8D8E110CC00FB679
:1009000007FCFACFE889F989808185FFF5CFCE0110
:100910000E942B04F1CFEB8DEC0FFD2FF11DE35A5C
:10092000FF4FF0829FB7F8940B8FEA89FB89808193
:100930008062CFCFCF93DF93EC01888D8823B9F00D
:10094000AA89BB89E889F9898C9185FD03C08081DA
:1009500086FD0DC00FB607FCF7CF8C9185FFF2CF57
:10096000808185FFEDCFCE010E942B04E9CFDF917E
:10097000CF910895EF92FF920F931F93CF93DF9340
:100980008091E2018823A1F080912F01882361F0FA
:100990008FB7F89490912F01913071F59DB390939A
:1009A0002E019DB39DBB8FBF80E58CBD81E08DBDC9
:1009B00060E08091E1010E943C038091E201882384
:1009C000F1F030E020E08091E50190E0880F991F80
:1009D0002817390708F03DC0E091E801F091E901DE
:1009E000E20FF31F80818EBD00000DB407FEFDCF26
:1009F0008EB52F5F3F4FE7CF80932E01D5CFD0E04C
:100A0000C0E08091E50190E0880F991FC817D907D1
:100A100000F5E091E801F091E901EC0FFD1F008184
:100A2000F090E001E090DF0118E0602F661F66277C
:100A3000661F8E2D0E943C03000F61E08F2D0E94E7
:100A40003C0360E08F2D0E943C03115071F721960A
:100A5000D8CF61E08091E1010E943C038091E201E6
:100A6000882371F080912F01882351F09FB7F8946B
:100A700020912F0180912E01213049F48DBB9FBF21
:100A8000DF91CF911F910F91FF90EF9008958FBF4D
:100A9000F7CFEAEDF1E0438550E0440F551F70E0D9
:100AA00060E0868597850C94A50EEF92FF920F93D8
:100AB0001F93CF93DF93FF24F394D0E0C0E001E0D5
:100AC00010E0B9E0EB2E0E94490598010C2E02C0FF
:100AD000220F331F0A94E2F7E0E090E08091E501F5
:100AE000E817E0F5EE9DB0011124A091E601B09168
:100AF000E701A60FB71F18964C9150E042235323ED
:100B0000452B51F14E2F50E08150990B841B950BD2
:100B1000880F991FA091E801B091E901A80FB91FB2
:100B2000FC92A091E601B091E701A60FB71FAC0FB0
:100B3000BD1F6C918091E5018150990B841B950B31
:100B4000880F991F4091E8015091E901840F951F8A
:100B5000DC0111966C9391E0EF5FC0CF91110E9480
:100B6000BA042196F394C830D10509F0ACCF80E0E7
:100B700099E02091E501821758F4E091E601F091A7
:100B8000E701899FE00DF11D112410868F5FF1CFE1
:100B9000DF91CF911F910F91FF90EF900895FF92F9
:100BA0000F931F93CF93DF938A30910508F065C0B0
:100BB000EB018C01F090E5010E94490540E0EC2F2B
:100BC0005FEF5F0D0230110509F44EC088F4011586
:100BD0001105D9F00130110509F43FC04F5F5417DA
:100BE00088F7DF91CF911F910F91FF900C94BA0479
:100BF00003301105E1F10430110581F791E02097F0
:100C000009F490E0919589E005C091E0209709F002
:100C100090E08CE0642F70E02091E5012150330BCF
:100C2000261B370B220F331FA091E801B091E90179
:100C3000A20FB31F8C932091E5012150330B261B8B
:100C4000370B220F331F6091E8017091E901260FE5
:100C5000371FD90111969C93C1CF9C2FC830D10565
:100C60000CF097E08BE0D6CF9E2F8AE0D3CF91E0B7
:100C7000209709F490E08FE0CDCF21E0613071053D
:100C800009F020E00B9761F02093EE0161307105CF
:100C900049F4DF91CF911F910F91FF900C9455056E
:100CA0002093EF01DF91CF911F910F91FF90089555
:100CB000DF92EF92FF920F931F93CF93DF9399E010
:100CC000899F80011124F12CE12CC82FD0E0DD2474
:100CD000D394DE0CE091E601F091E701E00FF11F03
:100CE000808590E00E2C02C0959587950A94E2F7D6
:100CF00080FF2DC00E9449058091E5018150990B2C
:100D00008C1B9D0B880F991F2091E8013091E90100
:100D1000820F931FFC01D082E091E601F091E70180
:100D2000E00FF11FEE0DFF1D40812091E5012150E4
:100D3000330B2C1B3D0B220F331F8091E801909148
:100D4000E901280F391FF90141830E94BA04FFEF1E
:100D5000EF1AFF0A88E0E816F10409F0B8CF809195
:100D6000E6019091E701080F191FF8011086DF9145
:100D7000CF911F910F91FF90EF90DF9008958F9288
:100D80009F92AF92BF92CF92DF92EF92FF920F931A
:100D90001F93CF93DF9399E0899FD001112401E045
:100DA00010E020E030E048015901062E04C0880C14
:100DB000991CAA1CBB1C0A94D2F7F82C982D90956C
:100DC000E7E0F0E0E61BF10904C0000F111F221F4D
:100DD000331FEA95D2F7E02E009530E020E050E096
:100DE000C7E0D0E0B901E091E601F091E701EA0F38
:100DF000FB1FB090DE011091DD016A01022E02C0DE
:100E0000D594C7940A94E2F7C0FE33C0BB2019F012
:100E1000BE01621B730BE60FF71F70816F2D11115E
:100E20006E2D762B70832F5F3F4F28303105D1F622
:100E30002091E6013091E701A20FB31F9FEF1896B2
:100E40009C939091EE01992331F09091E5018917DF
:100E500010F40E94580681E0DF91CF911F910F910D
:100E6000FF90EF90DF90CF90BF90AF909F908F90CA
:100E70000895BB2019F0BE01621B730BE60FF71F2C
:100E80006081792F1111702F67236083CCCF962F4B
:100E90002091DD012223C1F0429550E09A01359561
:100EA0002795359527952373440F551F440F551FDC
:100EB0004C7C422B242F30E0A90155954795457570
:100EC000220F331F2A7A422B29E0829FF00111243E
:100ED000A091E601B091E701AE0FBF1F692F70E04E
:100EE0002091DE01222379F127E030E0261B370B29
:100EF000A20FB31F4C932091E6013091E701E20F5E
:100F0000F31F20853091DE013323F9F0A7E0B0E034
:100F1000A61BB70B41E050E060E070E004C0440F56
:100F2000551F661F771FAA95D2F7422B40879091D5
:100F3000EE01992331F09091E501891710F40E9498
:100F4000580681E008959B01D3CF41E050E060E076
:100F500070E004C0440F551F661F771F9A95D2F7A3
:100F6000E4CF90E069E058E04FEF969F90011124A4
:100F7000A091E601B091E701A20FB31FFD01752F0B
:100F800011927A95E9F7E091E601F091E701E20F1D
:100F9000F31F40879F5F891740F78091EE01811111
:100FA0000C9455050895FC0180819181009711F002
:100FB0000C94560D08950F931F93CF93DF93EC017C
:100FC00088819981009759F02A813B81261737073C
:100FD00030F081E0DF91CF911F910F9108958B0147
:100FE0006F5F7F4F0E94DF0D009759F099838883D0
:100FF0001B830A832C813D81232B59F7FC0110822E
:10100000E8CF80E0E7CFEF92FF920F931F93CF934B
:10101000DF93EC017B018A01BA010E94DB07288182
:101020003981811114C02115310519F0C9010E94BF
:10103000560D198218821D821C821B821A82CE01D3
:10104000DF91CF911F910F91FF90EF9008951D8335
:101050000C83B701C9010E94AC0EF1CF1F920F9211
:101060000FB60F9211242F933F938F939F93AF93BB
:10107000BF938091260190912701A0912801B09102
:1010800029013091250123E0230F2D3758F50196D2
:10109000A11DB11D20932501809326019093270166
:1010A000A0932801B093290180912A0190912B01EE
:1010B000A0912C01B0912D010196A11DB11D80932D
:1010C0002A0190932B01A0932C01B0932D01BF9185
:1010D000AF919F918F913F912F910F900FBE0F90E5
:1010E0001F90189526E8230F0296A11DB11DD2CF9F
:1010F0001F920F920FB60F9211242F933F934F938D
:101100005F936F937F938F939F93AF93BF93EF936F
:10111000FF9380E391E00E942B04FF91EF91BF9138
:10112000AF919F918F917F916F915F914F913F917F
:101130002F910F900FBE0F901F9018951F920F9236
:101140000FB60F9211242F938F939F93EF93FF93DA
:10115000E0914001F09141018081E0914601F091E0
:10116000470182FD1BC09081809149018F5F8F7381
:1011700020914A01821741F0E0914901F0E0E05DE1
:10118000FE4F958F80934901FF91EF919F918F9131
:101190002F910F900FBE0F901F9018958081F4CF64
:1011A000E0E3F1E01382128288EE93E0A0E0B0E089
:1011B00084839583A683B7838AE091E091838083BB
:1011C00085EC90E09587848784EC90E0978786870C
:1011D00080EC90E0918B808B81EC90E0938B828B04
:1011E00082EC90E0958B848B86EC90E0978B868BDD
:1011F000118E128E138E148EEAEDF1E082E085835B
:1012000084E0868383E0878310862DEC31E032878B
:101210002187838781E0848B25E030E03183208340
:10122000128213828483E4EDF1E011821082138232
:101230001282158214824BE050E068E171E0CF0128
:101240000E940308EEECF1E01182108213821282F8
:101250001582148250E040E063E271E0CF010C940B
:101260000308CF93DF9300D000D000D0CDB7DEB716
:10127000789484B5826084BD84B5816084BD85B571
:10128000826085BD85B5816085BD80916E0081607D
:1012900080936E0010928100809181008260809323
:1012A0008100809181008160809381008091800025
:1012B0008160809380008091B10084608093B10050
:1012C0008091B00081608093B00080917A0084604A
:1012D00080937A0080917A00826080937A00809176
:1012E0007A00816080937A0080917A008068809390
:1012F0007A001092C1008091E201882309F4C0C0F5
:101300001FB7F89480912401811124C0E4ECF5E02A
:101310008491E8EDF5E09491E82FF0E0EE0FFF1FE7
:10132000E055FA4FA591B491EC91E92321F461E0E5
:101330008AE00E943C038AE00E941D038CB5806114
:101340008CBD8CB580648CBD8DE00E941D038BE04C
:101350000E941D03809124018F5F809324011FBF91
:101360008091E1010E941D0361E08091E1010E94F2
:101370003C031092EB011092EA011092ED011092E1
:10138000EC018091F0019091F1018856904009F4B0
:101390009AC0E8E6F0E0F093F101E093F0011092DA
:1013A000F20188E08093F3011092F6011092F501AA
:1013B0008FEF90E09093F8018093F7011092FA017B
:1013C0001092F901E491E63409F033C0E9E6F0E067
:1013D000E491E13009F45DC082E090E0E23029F56B
:1013E000EAE6F0E08491EBE6F0E0E49190E0982FFB
:1013F00088278E0F911D9093F6018093F501ECE6FE
:10140000F0E08491EDE6F0E0E49190E0982F8827F9
:101410008E0F911D9093F8018093F701EEE6F0E0B6
:10142000E491E093F30187E090E09093FA018093D8
:10143000F901C090F901D090FA01F12CE12C209132
:10144000F5013091F6014091F7015091F80160E00B
:101450004217530708F435C0F601E859FF4F84914D
:10146000681708F4682F90E0B0E0A0E00196A11D95
:10147000B11DC80ED91EEA1EFB1E2F5F3F4FE8CFDD
:101480008091DF010E941D038091E0010E941D03F5
:1014900067CFEAE6F0E0E491F0E0F093F601E09344
:1014A000F501EBE6F0E0E491F0E0F093F801E09371
:1014B000F701ECE6F0E0E491E093F30185E090E0E1
:1014C000B4CF6093F4011091E50169E0169FC0016B
:1014D00011240E94BA0C7C019093E7018093E601ED
:1014E000812F90E0880F991F0E94BA0C9093E90118
:1014F0008093E801892B89F1EF2879F170E060E0B1
:1015000083E090E00E94CF0567E070E081E090E02A
:101510000E94CF0567E070E082E090E00E94CF0576
:1015200070E060E084E090E00E94CF058091E501EA
:1015300081500E94B10770E060E090E080E00E947E
:10154000CF0570E060E08BE090E00E94CF0561E0A5
:1015500070E08AE090E00E94CF056AE070E082E0EF
:1015600090E00E94CF0570E060E08AE090E00E9489
:10157000CF05E0914001F091410182E08083E0914C
:101580003C01F0913D011082E0913E01F0913F015C
:101590008FEC808310924801E0914401F091450165
:1015A00086E08083E0914201F09143018081806177
:1015B0008083E0914201F0914301808188608083C3
:1015C000E0914201F0914301808180688083E09145
:1015D0004201F091430180818F7D80838091E501FC
:1015E00081500E94B107D12CC12C1A8219821C8211
:1015F0001B821E821D826091D4017091D5018601EB
:101600006115710509F4AEC04091D8015091D9011E
:10161000CE0101960E940308B12CA12C8D819E81E0
:10162000A816B90608F09EC089819A810097B9F181
:101630008A0D9B1DFC018081082E000C990B7801FE
:101640002090EE014090F9015090FA01712C612C2C
:101650002091F5013091F6018217930708F47AC0C2
:101660004091F7015091F8014817590708F472C0EA
:101670004091F0015091F101FA01E40DF51D281798
:10168000390778F4E4914E0E511C611C711CFFEF78
:101690004F1A5F0A6F0A7F0A2F5F3F4FEDCF80E03E
:1016A000CBCF34902FEF421A520A620A720A10927C
:1016B000EE01832C912CE02FEE190E2E000CFF0B67
:1016C000E815F9052CF5AF01440D551DE091F00129
:1016D000F091F101E40FF51F44916E2D6770C70181
:1016E00033E0969587953A95E1F72091E501509181
:1016F000DC01552341F0821710F40E94BF0661E01F
:10170000E61AF108D8CF8217D0F70E944707F7CF23
:101710002092EE0121100E94550503191109602F36
:101720006770C80123E0969587952A95E1F7209187
:10173000E5014091DC01442379F0821718F440E080
:101740000E94BF060150110917FD0CC08FEFA81AA7
:10175000B80A64CF312CE1CF8217A0F740E00E9495
:101760004707F0CF0E945505CE0101960E94D3078E
:101770000E9488032B013C0186E9882E912CA12C24
:10178000B12C0E9488036419750986099709683E7F
:10179000734081059105A8F391E0891A9108A10889
:1017A000B108E8EE4E0EE3E05E1E611C711C811470
:1017B0009104A104B10429F72FEFC21AD20A809133
:1017C000E50168E0869FC0011124801791070CF0A5
:1017D0000CCF80E391E00E940B04892BE9F080E3B9
:1017E00091E00E94E9038A30C9F56091CE017091C1
:1017F000CF0161157105E9F04091D2015091D301FB
:1018000084ED91E00E94030850E040E063E271E063
:101810008EEC91E00E94030880E090E0892B09F4AF
:10182000DDCE0E941704882309F4D8CE0E94000060
:10183000D5CE8091D4019091D501009711F00E94EE
:10184000560D1092D5011092D4011092D901109228
:10185000D8011092D7011092D601D6CF89831A826F
:101860000091D2011091D3010F5F1F4FB8018EEC90
:1018700091E00E94DB07882309F4ABCF2091CE01D1
:101880003091CF018091D2019091D301BE016F5F61
:101890007F4F820F931F0E94AC0E1093D3010093D1
:1018A000D20197CF8EEC91E00E94D30784ED91E0B6
:1018B0000E94D3078091E201882399F09FB7F894A2
:1018C00080912401882319F0815080932401809114
:1018D0002401811105C08CB58F7B8CBD10922F0126
:1018E0009FBF8091E6019091E7010E94560D809183
:1018F000E8019091E9010C94560D2F923F924F927E
:101900005F926F927F928F929F92AF92BF92CF928F
:10191000DF92EF92FF920F931F93CF93DF93CDB798
:10192000DEB7CA1BDB0B0FB6F894DEBF0FBECDBF10
:1019300009942A88398848885F846E847D848C84E1
:101940009B84AA84B984C884DF80EE80FD800C81EA
:101950001B81AA81B981CE0FD11D0FB6F894DEBFCD
:101960000FBECDBFED010895EE0FFF1F0590F4915E
:10197000E02D09940F931F93CF93DF93823091054D
:1019800010F482E090E0E091FD01F091FE0130E082
:1019900020E0B0E0A0E0309799F42115310509F47A
:1019A0004AC0281B390B24303105D8F58A819B8128
:1019B0006115710589F1FB0193838283FE0111C0DA
:1019C000408151810281138148175907E0F048177F
:1019D000590799F4109761F012960C931297139689
:1019E0001C933296CF01DF91CF911F910F910895F3
:1019F0000093FD011093FE01F4CF2115310551F044
:101A00004217530738F0A901DB019A01BD01DF013C
:101A1000F801C1CFEF01F9CF9093FE018093FD0152
:101A2000CDCFFE01E20FF31F819391932250310934
:101A300039832883D7CF2091FB013091FC01232BE0
:101A400041F420910201309103013093FC01209375
:101A5000FB0120910001309101012115310541F474
:101A60002DB73EB74091040150910501241B350B61
:101A7000E091FB01F091FC01E217F307A0F42E1BAB
:101A80003F0B2817390778F0AC014E5F5F4F2417E2
:101A9000350748F04E0F5F1F5093FC014093FB0148
:101AA000819391939FCFF0E0E0E09CCFCF93DF93C1
:101AB0000097E9F0FC01329713821282A091FD0198
:101AC000B091FE01ED0130E020E01097A1F42081FB
:101AD0003181820F931F2091FB013091FC01281767
:101AE000390709F061C0F093FC01E093FB01DF913D
:101AF000CF910895EA01CE17DF07E8F54A815B81AF
:101B00009E0141155105B1F7E901FB83EA83499133
:101B10005991C40FD51FEC17FD0761F480819181A5
:101B20000296840F951FE9019983888382819381AE
:101B30009B838A83F0E0E0E012968D919C9113974D
:101B40000097B9F52D913C911197CD010296820F26
:101B5000931F2091FB013091FC012817390739F6BA
:101B6000309751F51092FE011092FD01B093FC01E7
:101B7000A093FB01BCCFD383C28340815181840FEA
:101B8000951FC817D90761F44E5F5F4F888199810F
:101B9000480F591F518340838A819B81938382839D
:101BA0002115310509F0B0CFF093FE01E093FD015E
:101BB0009ECFFD01DC01C0CF13821282D7CFB0E0EF
:101BC000A0E0E5EEFDE00C947F0C8C01009751F451
:101BD000CB010E94BA0C8C01C801CDB7DEB7E0E1A1
:101BE0000C949B0CFC01E60FF71F9C01225031095D
:101BF000E217F30708F49DC0D901CD91DC9111974C
:101C0000C617D70798F0C530D10530F3CE01049739
:101C10008617970708F3C61BD70B2297C193D1935A
:101C20006D937C93CF010E94560DD6CF5B01AC1A09
:101C3000BD0A4C018C0E9D1EA091FD01B091FE01CC
:101C4000512C412CF12CE12C109731F58091FB01A6
:101C50009091FC018815990509F05CC0461657065D
:101C600008F058C08091000190910101009741F463
:101C70008DB79EB74091040150910501841B950BCF
:101C8000E817F90708F055C0F093FC01E093FB0159
:101C9000F90171836083A0CF8D919C911197129669
:101CA0006C90129713967C901397A815B90559F567
:101CB0006C0142E0C40ED11CCA14DB0420F1AC015B
:101CC0004A195B09DA011296159780F062827382D5
:101CD00051834083D9016D937C93E114F10471F039
:101CE000D7011396FC93EE93129776CF22968C0F22
:101CF0009D1FF90191838083F301EFCFF093FE01E3
:101D0000E093FD0169CF4816590608F42C017D01C6
:101D1000D3019ACFCB010E94BA0C7C01009749F005
:101D2000AE01B8010E949C0EC8010E94560D8701A9
:101D300053CF10E000E050CFFB01DC0102C0019066
:101D40000D9241505040D8F70895DC0101C06D93C9
:101D500041505040E0F70895FB01DC0101900D92E5
:101D60000020E1F7089512E0C2EFD2E004C0FE01C6
:101D70000E94B40C2196C33FD107C9F7F894FFCF56
:101D80000000FF018000000000004D04AD03DA03F5
:101D90009A040B04E903FD035550494954202D20B2
:041DA00049504E0058
:107800000C94343C0C94513C0C94513C0C94513CE1
:107810000C94513C0C94513C0C94513C0C94513CB4
:107820000C94513C0C94513C0C94513C0C94513CA4
:107830000C94513C0C94513C0C94513C0C94513C94
:107840000C94513C0C94513C0C94513C0C94513C84
:107850000C94513C0C94513C0C94513C0C94513C74
:107860000C94513C0C94513C11241FBECFEFD8E036
:10787000DEBFCDBF11E0A0E0B1E0ECE9FFE702C060
:1078800005900D92A230B107D9F712E0A2E0B1E065
:1078900001C01D92AD30B107E1F70E942D3D0C945F
:1078A000CC3F0C94003C982F959595959595959582
:1078B000905D8F708A307CF0282F295A8091C0000B
:1078C00085FFFCCF9093C6008091C00085FFFCCF60
:1078D0002093C6000895282F205DF0CF982F809127
:1078E000C00085FFFCCF9093C6000895EF92FF92F1
:1078F0000F931F93EE24FF2487018091C00087FD22
:1079000017C00894E11CF11C011D111D81E4E8164B
:1079100082E4F8068FE0080780E0180770F3E09132
:107920000401F091050109958091C00087FFE9CF1E
:107930008091C6001F910F91FF90EF9008950E94D3
:10794000763C982F8091C00085FFFCCF9093C600B5
:1079500091362CF490330CF09053892F089597555D
:10796000892F08951F930E949F3C182F0E949F3CCF
:107970001295107F810F1F9108951F93182F882350
:1079800021F00E94763C1150E1F71F9108951F935A
:10799000182F0E94763C803249F0809103018F5F5E
:1079A000809303018530C1F01F9108958091C0003C
:1079B00085FFFCCF84E18093C6008091C00085FFE5
:1079C000FCCF1093C6008091C00085FFFCCF80E102
:1079D0008093C6001F910895E0910401F091050184
:1079E00009951F9108950E94763C803241F0809164
:1079F00003018F5F80930301853081F008958091AA
:107A0000C00085FFFCCF84E18093C6008091C00058
:107A100085FFFCCF80E18093C6000895E0910401CA
:107A2000F09105010995089540E951E08823A1F0FE
:107A30002D9A28EE33E0FA013197F1F721503040CA
:107A4000D1F72D9828EE33E0FA013197F1F7215064
:107A50003040D1F7815061F708953F924F925F9285
:107A60006F927F928F929F92AF92BF92CF92DF924E
:107A7000EF92FF920F931F93CF93DF93000080E16B
:107A80008093C4001092C50088E18093C10086E015
:107A90008093C2005098589A259A81E00E94143D24
:107AA00024E1F22E9EE1E92E85E9D82E0FE0C02ECA
:107AB00010E1B12EAA24A394B1E49B2EA6E58A2E50
:107AC000F2E57F2EE0E26E2E79E4572E63E5462E36
:107AD00050E5352E0E94763C8033B1F18133B9F107
:107AE000803409F46FC0813409F476C0823409F41B
:107AF00085C0853409F488C0803531F1823521F1A3
:107B0000813511F1853509F485C0863509F48DC0BC
:107B1000843609F496C0843709F403C1853709F423
:107B200072C1863709F466C0809103018F5F80932C
:107B30000301853079F6E0910401F0910501099582
:107B40000E94763C803351F60E94F33CC3CF0E94E2
:107B5000763C803249F78091C00085FFFCCFF092DF
:107B6000C6008091C00085FFFCCF9092C600809136
:107B7000C00085FFFCCF8092C6008091C00085FFC9
:107B8000FCCF7092C6008091C00085FFFCCF609250
:107B9000C6008091C00085FFFCCF5092C600809146
:107BA000C00085FFFCCF4092C6008091C00085FFD9
:107BB000FCCF3092C6008091C00085FFFCCFB09210
:107BC000C60088CF0E94763C863808F4BDCF0E945C
:107BD000763C0E94F33C7ECF0E94763C803809F4CC
:107BE0009CC0813809F40BC1823809F43CC1883942
:107BF00009F48FC080E00E94C73C6CCF84E10E94F2
:107C0000BD3C0E94F33C66CF85E00E94BD3C0E94D3
:107C1000F33C60CF0E94763C809306010E94763C44
:107C2000809307010E94F33C55CF0E94763C80333D
:107C300009F41DC183E00E94BD3C80E00E94C73C66
:107C400049CF0E94763C809309020E94763C809343
:107C5000080280910C028E7F80930C020E94763C79
:107C6000853409F415C18091080290910902892B8D
:107C700089F000E010E00E94763CF801E85FFE4FDA
:107C800080830F5F1F4F80910802909109020817AF
:107C9000190788F30E94763C803209F045CF809125
:107CA0000C0280FF01C16091060170910701660F0F
:107CB000771F7093070160930601A0910802B091AD
:107CC00009021097C9F0E8E0F1E09B01AD014E0F09
:107CD0005F1FF999FECF32BD21BD819180BDFA9A17
:107CE000F99A2F5F3F4FE417F50799F76A0F7B1F4B
:107CF00070930701609306018091C00085FFFCCF5F
:107D0000F092C6008091C00085FFFCCFB092C60003
:107D1000E1CE83E00E94C73CDDCE82E00E94C73CFA
:107D2000D9CE0E94763C809309020E94763C8093D3
:107D300008028091060190910701880F991F909386
:107D40000701809306010E94763C853409F4A6C0A1
:107D500080910C028E7F80930C020E94763C8032D0
:107D600009F0B8CE8091C00085FFFCCFF092C6002C
:107D7000609108027091090261157105B9F140E046
:107D800050E080910C02A82FA170B82FB27011C0E2
:107D9000BB2309F45CC0E0910601F0910701319624
:107DA000F0930701E09306014F5F5F4F46175707B7
:107DB000E8F4AA2369F3F999FECF209106013091E6
:107DC000070132BD21BDF89A90B58091C00085FFB2
:107DD000FCCF9093C6002F5F3F4F30930701209355
:107DE00006014F5F5F4F4617570718F38091C00099
:107DF00085FDE5CE8091C00085FFF8CFE0CE81E023
:107E00000E94C73C67CE0E94763C803209F08CCE3F
:107E10008091C00085FFFCCFF092C6008091C00029
:107E200085FFFCCFE092C6008091C00085FFFCCFAB
:107E3000D092C6008091C00085FFFCCFC092C600E2
:107E40008091C00085FFFCCFB092C60043CEE09188
:107E50000601F091070194918091C00085FFFCCF4D
:107E60009093C6009CCF80E10E94C73C33CE0E9415
:107E7000763C0E94763C182F0E94763C112309F430
:107E800083C0113009F484C08FE00E94C73C22CE29
:107E900080910C02816080930C02E5CE80910C02EF
:107EA000816080930C0259CF809107018823880F4D
:107EB000880B8A2180930B02809106019091070123
:107EC000880F991F90930701809306018091080203
:107ED00080FF09C080910802909109020196909359
:107EE000090280930802F894F999FECF1127E091D6
:107EF0000601F0910701C8E0D1E08091080290915D
:107F00000902103091F40091570001700130D9F34B
:107F100003E000935700E89500915700017001308D
:107F2000D9F301E100935700E89509901990009169
:107F3000570001700130D9F301E000935700E89534
:107F40001395103498F011270091570001700130FB
:107F5000D9F305E000935700E895009157000170B0
:107F60000130D9F301E100935700E895329602976A
:107F700009F0C7CF103011F00296E5CF112480919F
:107F8000C00085FFB9CEBCCE8EE10E94C73CA2CD19
:0E7F900085E90E94C73C9ECDF894FFCF80008B
:00000001FF
