:100000000C945C000C9479000C9479000C947900A9
:100010000C9479000C9479000C9479000C9479007C
:100020000C9479000C9479000C9479000C9479006C
:100030000C9479000C9479000C9479000C9479005C
:100040000C94EC000C9479000C9479000C947900D9
:100050000C9479000C9479000C9479000C9479003C
:100060000C9479000C947900000000002400270013
:100070002A0000000000250028002B0004040404CE
:100080000404040402020202020203030303030342
:10009000010204081020408001020408102001021F
:1000A00004081020000000080002010000030407FB
:1000B000000000000000000011241FBECFEFD8E0B8
:1000C000DEBFCDBF11E0A0E0B1E0E8EEF3E002C09A
:1000D00005900D92AA39B107D9F721E0AAE9B1E05C
:1000E00001C01D92A33AB207E1F70E9436010C94B9
:1000F000F2010C94000090E0FC01EC55FF4F2491BC
:10010000FC01E057FF4F3491FC01E458FF4FE491AC
:10011000EE23C9F0222339F0233001F1A8F4213075
:1001200019F1223029F1F0E0EE0FFF1FEE58FF4FDA
:10013000A591B4918FB7F894EC91611126C03095D8
:100140003E233C938FBF08952730A9F02830C9F093
:10015000243049F7809180008F7D03C0809180001A
:100160008F7780938000DFCF84B58F7784BDDBCF1E
:1001700084B58F7DFBCF8091B0008F778093B000E6
:10018000D2CF8091B0008F7DF9CF3E2BDACF3FB731
:10019000F89480919F019091A001A091A101B0914C
:1001A000A20126B5A89B05C02F3F19F00196A11DFD
:1001B000B11D3FBFBA2FA92F982F8827BC01CD01B1
:1001C000620F711D811D911D42E0660F771F881F10
:1001D000991F4A95D1F708951F920F920FB60F926B
:1001E00011242F933F938F939F93AF93BF9380914D
:1001F0009B0190919C01A0919D01B0919E01309135
:100200009A0123E0230F2D3758F50196A11DB11D4A
:1002100020939A0180939B0190939C01A0939D0150
:10022000B0939E0180919F019091A001A091A101A6
:10023000B091A2010196A11DB11D80939F019093E1
:10024000A001A093A101B093A201BF91AF919F9192
:100250008F913F912F910F900FBE0F901F90189587
:1002600026E8230F0296A11DB11DD2CF789484B544
:10027000826084BD84B5816084BD85B5826085BDA2
:1002800085B5816085BD80916E00816080936E0030
:100290001092810080918100826080938100809122
:1002A00081008160809381008091800081608093D3
:1002B00080008091B10084608093B1008091B00093
:1002C00081608093B00080917A00846080937A008E
:1002D00080917A00826080937A0080917A008160B8
:1002E00080937A0080917A00806880937A001092DF
:1002F000C1000EE011E0C0E0D1E0899199919C012C
:100300003327F901E057FF4F449124583F4FF9013B
:100310002491222399F030E0220F331FF901E8598C
:10032000FF4FA591B491F901EE58FF4F25913491FB
:100330002FB7F894EC91E42BEC932FBF61E00E946F
:100340007B000C171D07C9F620E0A22E20E0B22E7C
:10035000CEE0D1E090E0E92E91E0F92E10E000E04F
:10036000F7018081F2E0EF0EF11CFE01E00FF11FBA
:1003700060810E947B000E5F1F4F0E30110581F7D8
:100380000E94C7002B013C0188EEC82E83E0D82EC6
:10039000E12CF12C0E94C7006419750986099709A0
:1003A000683E734081059105A8F321E0C21AD10887
:1003B000E108F10888EE480E83E0581E611C711CAC
:1003C000C114D104E104F10429F72E96F1E0CA39F1
:1003D000DF0709F0BFCFA114B10409F4B9CF0E941F
:0803E0000000B6CFF894FFCF36
:1003E80002000300040005000600070008000000E2
:1003F80000000000000000000000010001000000F3
:1004080000000100010001000100000000000100DF
:1004180000000000010000000000000000000000D3
:1004280001000100000001000000000001000100BF
:1004380000000000000001000000000001000000B2
:1004480000000000010000000000000000000000A3
:100458000000000000000100010001000100000090
:100468000000000000000000000000000000000084
:0A0478000000000001000000000079
:00000001FF
